{
  "_format": "hh-sol-artifact-1",
  "contractName": "OffchainAssetVaultFactory",
  "sourceName": "contracts/vault/offchainAsset/OffchainAssetVaultFactory.sol",
  "abi": [
    {
      "anonymous": false,
      "inputs": [
        {
          "indexed": false,
          "internalType": "address",
          "name": "sender",
          "type": "address"
        },
        {
          "indexed": false,
          "internalType": "address",
          "name": "implementation",
          "type": "address"
        }
      ],
      "name": "Implementation",
      "type": "event"
    },
    {
      "anonymous": false,
      "inputs": [
        {
          "indexed": false,
          "internalType": "address",
          "name": "sender",
          "type": "address"
        },
        {
          "indexed": false,
          "internalType": "address",
          "name": "child",
          "type": "address"
        }
      ],
      "name": "NewChild",
      "type": "event"
    },
    {
      "inputs": [
        {
          "internalType": "bytes",
          "name": "data_",
          "type": "bytes"
        }
      ],
      "name": "createChild",
      "outputs": [
        {
          "internalType": "address",
          "name": "",
          "type": "address"
        }
      ],
      "stateMutability": "nonpayable",
      "type": "function"
    },
    {
      "inputs": [
        {
          "components": [
            {
              "internalType": "address",
              "name": "admin",
              "type": "address"
            },
            {
              "components": [
                {
                  "internalType": "address",
                  "name": "asset",
                  "type": "address"
                },
                {
                  "internalType": "string",
                  "name": "name",
                  "type": "string"
                },
                {
                  "internalType": "string",
                  "name": "symbol",
                  "type": "string"
                },
                {
                  "internalType": "string",
                  "name": "uri",
                  "type": "string"
                }
              ],
              "internalType": "struct ConstructionConfig",
              "name": "receiptVaultConfig",
              "type": "tuple"
            }
          ],
          "internalType": "struct ConstructionConfig",
          "name": "config_",
          "type": "tuple"
        }
      ],
      "name": "createChildTyped",
      "outputs": [
        {
          "internalType": "contract OffchainAssetVault",
          "name": "",
          "type": "address"
        }
      ],
      "stateMutability": "nonpayable",
      "type": "function"
    },
    {
      "inputs": [
        {
          "internalType": "address",
          "name": "maybeChild_",
          "type": "address"
        }
      ],
      "name": "isChild",
      "outputs": [
        {
          "internalType": "bool",
          "name": "",
          "type": "bool"
        }
      ],
      "stateMutability": "view",
      "type": "function"
    }
  ],
  "bytecode": "0x608060405234801561001057600080fd5b506001600055615eae806100256000396000f3fe60806040523480156200001157600080fd5b5060043610620000465760003560e01c80632ea72a49146200004b57806362e86fdc146200007f578063fc91a8971462000096575b600080fd5b620000626200005c366004620003ab565b620000d6565b6040516001600160a01b0390911681526020015b60405180910390f35b620000626200009036600462000443565b6200020d565b620000c5620000a736600462000561565b6001600160a01b031660009081526001602052604090205460ff1690565b604051901515815260200162000076565b600060026000541415620001315760405162461bcd60e51b815260206004820152601f60248201527f5265656e7472616e637947756172643a207265656e7472616e742063616c6c0060448201526064015b60405180910390fd5b60026000908155620001438362000241565b6001600160a01b03811660009081526001602052604090205490915060ff1615620001a35760405162461bcd60e51b815260206004820152600f60248201526e111554131250d0551157d0d2125311608a1b604482015260640162000128565b6001600160a01b038116600081815260016020818152604092839020805460ff19169092179091558151338152908101929092527f7da70c4e5387d7038610b79ca7d304caaef815826e51e67cf247135387a79bce910160405180910390a1600160005592915050565b60006200023b82604051602001620002269190620005e2565b604051602081830303815290604052620000d6565b92915050565b600081806020019051810190620002599190620006be565b604051620002679062000297565b620002739190620005e2565b604051809103906000f08015801562000290573d6000803e3d6000fd5b5092915050565b6156b080620007c983390190565b634e487b7160e01b600052604160045260246000fd5b604080519081016001600160401b0381118282101715620002e057620002e0620002a5565b60405290565b604051608081016001600160401b0381118282101715620002e057620002e0620002a5565b604051601f8201601f191681016001600160401b0381118282101715620003365762000336620002a5565b604052919050565b60006001600160401b038211156200035a576200035a620002a5565b50601f01601f191660200190565b60006200037f62000379846200033e565b6200030b565b90508281528383830111156200039457600080fd5b828260208301376000602084830101529392505050565b600060208284031215620003be57600080fd5b81356001600160401b03811115620003d557600080fd5b8201601f81018413620003e757600080fd5b620003f88482356020840162000368565b949350505050565b6001600160a01b03811681146200041657600080fd5b50565b600082601f8301126200042b57600080fd5b6200043c8383356020850162000368565b9392505050565b6000602082840312156200045657600080fd5b81356001600160401b03808211156200046e57600080fd5b90830190604082860312156200048357600080fd5b6200048d620002bb565b82356200049a8162000400565b8152602083013582811115620004af57600080fd5b929092019160808387031215620004c557600080fd5b620004cf620002e6565b8335620004dc8162000400565b8152602084013583811115620004f157600080fd5b620004ff8882870162000419565b6020830152506040840135838111156200051857600080fd5b620005268882870162000419565b6040830152506060840135838111156200053f57600080fd5b6200054d8882870162000419565b606083015250602082015295945050505050565b6000602082840312156200057457600080fd5b81356200043c8162000400565b60005b838110156200059e57818101518382015260200162000584565b83811115620005ae576000848401525b50505050565b60008151808452620005ce81602086016020860162000581565b601f01601f19169290920160200192915050565b602080825282516001600160a01b03908116838301528382015160408085015280519091166060840152908101516080808401526000916200062860e0850183620005b4565b91506040810151605f19808685030160a0870152620006488483620005b4565b935060608301519250808685030160c08701525050620006698282620005b4565b95945050505050565b600082601f8301126200068457600080fd5b81516200069562000379826200033e565b818152846020838601011115620006ab57600080fd5b620003f882602083016020870162000581565b600060208284031215620006d157600080fd5b81516001600160401b0380821115620006e957600080fd5b9083019060408286031215620006fe57600080fd5b62000708620002bb565b8251620007158162000400565b81526020830151828111156200072a57600080fd5b9290920191608083870312156200074057600080fd5b6200074a620002e6565b8351620007578162000400565b81526020840151838111156200076c57600080fd5b6200077a8882870162000672565b6020830152506040840151838111156200079357600080fd5b620007a18882870162000672565b604083015250606084015183811115620007ba57600080fd5b6200054d888287016200067256fe60a06040523480156200001157600080fd5b50604051620056b0380380620056b08339810160408190526200003491620007bf565b8060200151806060015181602001518260400151816003908051906020019062000060929190620005d2565b50805162000076906004906020840190620005d2565b5050506200008a81620004ca60201b60201c565b506001600c55516001600160a01b039081166080526020820151511615620000e85760405162461bcd60e51b815260206004820152600d60248201526c1393d396915493d7d054d4d155609a1b604482015260640160405180910390fd5b620001036000805160206200567083398151915280620004e3565b6200013e7fe16b3d8fc79140c62874442c8b523e98592b429e73c0db67686a5b378b29f33660008051602062005670833981519152620004e3565b620001596000805160206200563083398151915280620004e3565b620001947f779b9d7b1cefd23059ce3e2b194efb3183a6685dd830e8cbb723b0cbeb982b2860008051602062005630833981519152620004e3565b620001af6000805160206200561083398151915280620004e3565b620001ea7fd646ae07eb0d0f77457502a65e7407930dff4cd4fd99abc6aac87a753f4c8a4260008051602062005610833981519152620004e3565b62000205600080516020620055b083398151915280620004e3565b620002407ff40ec076ff2e3a403e1c18632267861d39085e7f359ca5665846f335632cf819600080516020620055b0833981519152620004e3565b6200025b6000805160206200565083398151915280620004e3565b620002967f9f5e37ff3a64b04b72b5b1811abfcf4517dd143202c8aa61348ea257fa96a08260008051602062005650833981519152620004e3565b620002b1600080516020620055f083398151915280620004e3565b620002ec7f4050867f5f2e7b09df27b54fd9dd2dc48115dba018cf621a03355f7966666ae0600080516020620055f0833981519152620004e3565b620003076000805160206200569083398151915280620004e3565b620003427f2c95f646d7033c5b1f0ff0b069bf367786555798c4a6d29fdd04e5009fe7254360008051602062005690833981519152620004e3565b6200035d600080516020620055d083398151915280620004e3565b620003987fa49d0f1c9ff1006cadfa9c5663622056113f1b69c0f273e4a1e170ee907cde94600080516020620055d0833981519152620004e3565b8051620003b69060008051602062005670833981519152906200052e565b8051620003d49060008051602062005630833981519152906200052e565b8051620003f29060008051602062005610833981519152906200052e565b80516200041090600080516020620055b0833981519152906200052e565b80516200042e9060008051602062005650833981519152906200052e565b80516200044c90600080516020620055f0833981519152906200052e565b80516200046a9060008051602062005690833981519152906200052e565b80516200048890600080516020620055d0833981519152906200052e565b7fa16eaaad935aa1b1f2fe1a2e50a26c06bf9b559be380236af19c78e6840facfd3382604051620004bb92919062000907565b60405180910390a150620009d6565b8051620004df90600b906020840190620005d2565b5050565b6000828152600f6020526040808220600101805490849055905190918391839186917fbd79b86ffe0ab8e8776151514217cd7cacd52c909f66475c3af44e129f0b00ff9190a4505050565b6000828152600f602090815260408083206001600160a01b038516845290915290205460ff16620004df576000828152600f602090815260408083206001600160a01b03851684529091529020805460ff191660011790556200058e3390565b6001600160a01b0316816001600160a01b0316837f2f8788117e7eff1d82e926ec794901d17c78024a50270940304540a733656f0d60405160405180910390a45050565b828054620005e09062000999565b90600052602060002090601f0160209004810192826200060457600085556200064f565b82601f106200061f57805160ff19168380011785556200064f565b828001600101855582156200064f579182015b828111156200064f57825182559160200191906001019062000632565b506200065d92915062000661565b5090565b5b808211156200065d576000815560010162000662565b634e487b7160e01b600052604160045260246000fd5b604080519081016001600160401b0381118282101715620006b357620006b362000678565b60405290565b604051608081016001600160401b0381118282101715620006b357620006b362000678565b80516001600160a01b0381168114620006f657600080fd5b919050565b60005b8381101562000718578181015183820152602001620006fe565b8381111562000728576000848401525b50505050565b600082601f8301126200074057600080fd5b81516001600160401b03808211156200075d576200075d62000678565b604051601f8301601f19908116603f0116810190828211818310171562000788576200078862000678565b81604052838152866020858801011115620007a257600080fd5b620007b5846020830160208901620006fb565b9695505050505050565b600060208284031215620007d257600080fd5b81516001600160401b0380821115620007ea57600080fd5b9083019060408286031215620007ff57600080fd5b620008096200068e565b6200081483620006de565b81526020830151828111156200082957600080fd5b9290920191608083870312156200083f57600080fd5b62000849620006b9565b6200085484620006de565b81526020840151838111156200086957600080fd5b62000877888287016200072e565b6020830152506040840151838111156200089057600080fd5b6200089e888287016200072e565b604083015250606084015183811115620008b757600080fd5b620008c5888287016200072e565b606083015250602082015295945050505050565b60008151808452620008f3816020860160208601620006fb565b601f01601f19169290920160200192915050565b600060018060a01b0380851683526040602084015280845116604084015260208401516040606085015281815116608085015260208101519150608060a085015262000958610100850183620008d9565b91506040810151607f19808685030160c0870152620009788483620008d9565b935060608301519250808685030160e08701525050620007b58282620008d9565b600181811c90821680620009ae57607f821691505b60208210811415620009d057634e487b7160e01b600052602260045260246000fd5b50919050565b608051614bbe620009f2600039600061067b0152614bbe6000f3fe608060405234801561001057600080fd5b506004361061047f5760003560e01c806391d1485411610257578063ba08765211610146578063cf97213b116100c3578063dd62ed3e11610087578063dd62ed3e14610b44578063e05f2fb414610b57578063e985e9c514610b7e578063ef8b30f714610bba578063f242432a14610bcd57600080fd5b8063cf97213b14610ad6578063d547741f14610aeb578063d80ea0e714610afe578063d904f19414610b11578063d905777e14610b3157600080fd5b8063c63d75b61161010a578063c63d75b6146106b8578063c6e6f59214610a76578063c77b66c214610a89578063cc05a01014610a9c578063ce96cb7714610ac357600080fd5b8063ba08765214610a03578063bbec4d0614610a16578063bc4c4d4514610a29578063c3b61f7014610a3c578063c54cafee14610a6357600080fd5b8063a318c1a4116101d4578063b25c17bc11610198578063b25c17bc1461098c578063b3d7f6b9146109b3578063b460af94146109c6578063b86bc74f146109d9578063b9a28994146109ee57600080fd5b8063a318c1a414610913578063a457c2d714610926578063a9059cbb14610939578063ac9650d81461094c578063b0d601e51461096c57600080fd5b8063981b24d01161021b578063981b24d0146108bf5780639f40a7b3146108d25780639feb8433146108e5578063a217fddf146108f8578063a22cb4651461090057600080fd5b806391d1485414610869578063943b58c61461087c57806394bf804d1461089c57806395d89b41146108af5780639711715a146108b757600080fd5b806336568abe116103735780634db208a8116102f057806366941984116102b457806366941984146107f45780636e553f651461080957806370a082311461081c57806373ce2d131461082f57806385b687561461085657600080fd5b80634db208a81461074c5780634e1273f4146107735780634ee2cd7e1461079357806350f4fc40146107a65780636057644b146107cd57600080fd5b806347298f821161033757806347298f82146106e0578063486ad2f2146106f3578063488bd7b0146107135780634abe4137146107265780634cdad5061461073957600080fd5b806336568abe1461065b57806338d52e0f1461066e57806339509351146106a5578063402d267d146106b857806344f252a0146106cd57600080fd5b80631423feba11610401578063248a9ca3116103c5578063248a9ca3146105dc5780632eb2c2d6146105ff5780632f2ff15d14610612578063313ce5671461062557806334fb88421461063457600080fd5b80631423feba1461058457806316ad25a514610597578063177769cb146105ac57806318160ddd146105c157806323b872dd146105c957600080fd5b806307a2d13a1161044857806307a2d13a1461051157806307e9c0a214610524578063095ea7b31461054b5780630a28a4771461055e5780630e89341c1461057157600080fd5b8062fdd58e1461048457806301e1d114146104aa57806301ffc9a7146104b25780630226b5d2146104d557806306fdde03146104fc575b600080fd5b610497610492366004613a9f565b610be0565b6040519081526020015b60405180910390f35b610497610c7b565b6104c56104c0366004613adf565b610c8b565b60405190151581526020016104a1565b6104977ff2491dcc230f29376998d72c6c3ea4cc17d3791c66e46b32ea439c19610d51db81565b610504610c96565b6040516104a19190613b54565b61049761051f366004613b67565b610d28565b6104977f9f5e37ff3a64b04b72b5b1811abfcf4517dd143202c8aa61348ea257fa96a08281565b6104c5610559366004613a9f565b610d41565b61049761056c366004613b67565b610d59565b61050461057f366004613b67565b610d74565b610497610592366004613c35565b610e08565b610497600080516020614b4983398151915281565b6105bf6105ba366004613c95565b610e61565b005b600254610497565b6104c56105d7366004613cdb565b610eb2565b6104976105ea366004613b67565b6000908152600f602052604090206001015490565b6105bf61060d366004613dab565b610ed8565b6105bf610620366004613e54565b610f24565b604051601281526020016104a1565b6104977fc1a04980ce16d8574a4108b9f0a95358068379059fe211b7eb60a9f805237e6081565b6105bf610669366004613e54565b610f4e565b6040516001600160a01b037f00000000000000000000000000000000000000000000000000000000000000001681526020016104a1565b6104c56106b3366004613a9f565b610fc8565b6104976106c6366004613e80565b5060001990565b6104976106db366004613e80565b610fea565b6104976106ee366004613a9f565b611144565b610497610701366004613e80565b600e6020526000908152604090205481565b610497610721366004613e9b565b6112ad565b610497610734366004613a9f565b6112dc565b610497610747366004613b67565b6112e8565b6104977fd461edcf12d14f5a18f27560fb18cfcb7df6fedb1d46c3664b9634623e9a172d81565b610786610781366004613ebd565b611303565b6040516104a19190613fb8565b6104976107a1366004613a9f565b61142c565b6104977f2c95f646d7033c5b1f0ff0b069bf367786555798c4a6d29fdd04e5009fe7254381565b6104977fc091f023e1c6780346fd5f1017395079a3ea0e07d94a4f9e7273a43e3fa2a7e881565b610497600080516020614ae283398151915281565b610497610817366004613e54565b611475565b61049761082a366004613e80565b6114a0565b6104977fc23bede8eabca44a15d0193051ac5429f3d014a7e297a4e78f67d06657d1426981565b610497610864366004613a9f565b6114bb565b6104c5610877366004613e54565b6114d3565b6105bf61088a366004613b67565b336000908152600e6020526040902055565b6104976108aa366004613e54565b6114fe565b610504611529565b610497611538565b6104976108cd366004613b67565b611573565b6104976108e0366004613fcb565b61159e565b6105bf6108f3366004614053565b6115bc565b610497600081565b6105bf61090e3660046140cb565b611672565b610497610921366004613fcb565b61167d565b6104c5610934366004613a9f565b6116a0565b6104c5610947366004613a9f565b611726565b61095f61095a3660046140f5565b611734565b6040516104a19190614136565b6105bf61097a366004613b67565b336000908152600d6020526040902055565b6104977f4cbb985fecd7e86ede589f695f46f07d40afe7cb60f6049028c0b9a6bfaf649e81565b6104976109c1366004613b67565b611828565b6104976109d4366004614198565b611856565b610497600080516020614b6983398151915281565b610497600080516020614ac283398151915281565b610497610a11366004614198565b61187e565b610497610a24366004613e9b565b6118a6565b6105bf610a37366004614053565b6118d5565b6104977f4050867f5f2e7b09df27b54fd9dd2dc48115dba018cf621a03355f7966666ae081565b610497610a71366004614215565b61196b565b610497610a84366004613b67565b611a10565b610497610a97366004613c35565b611a26565b6104977fda44ae5b31a7809c0f15e7306bdde44fffb60fdee235af40c70b73a6610de41e81565b610497610ad1366004613e80565b611a70565b610497600080516020614aa283398151915281565b6105bf610af9366004613e54565b611a94565b6105bf610b0c36600461427c565b611ab9565b610497610b1f366004613e80565b600d6020526000908152604090205481565b610497610b3f366004613e80565b611b38565b610497610b523660046142eb565b611b5c565b6104977f4bbeb6fd3e5222e55f2f8b0c35bc228e0a06a25d0da772fdb02c3b92fa004f8881565b6104c5610b8c3660046142eb565b6001600160a01b039182166000908152600a6020908152604080832093909416825291909152205460ff1690565b610497610bc8366004613b67565b611b87565b6105bf610bdb366004614315565b611bac565b60006001600160a01b038316610c505760405162461bcd60e51b815260206004820152602a60248201527f455243313135353a2061646472657373207a65726f206973206e6f742061207660448201526930b634b21037bbb732b960b11b60648201526084015b60405180910390fd5b5060008181526009602090815260408083206001600160a01b03861684529091529020545b92915050565b6000610c8660025490565b905090565b6000610c7582611bf1565b606060038054610ca590614379565b80601f0160208091040260200160405190810160405280929190818152602001828054610cd190614379565b8015610d1e5780601f10610cf357610100808354040283529160200191610d1e565b820191906000526020600020905b815481529060010190602001808311610d0157829003601f168201915b5050505050905090565b6000610c7582670de0b6b3a7640000611c16565b611c16565b600033610d4f818585611c22565b5060019392505050565b336000908152600e6020526040812054610c759083906112ad565b6060600b8054610d8390614379565b80601f0160208091040260200160405190810160405280929190818152602001828054610daf90614379565b8015610dfc5780601f10610dd157610100808354040283529160200191610dfc565b820191906000526020600020905b815481529060010190602001808311610ddf57829003601f168201915b50505050509050919050565b600080610e153386611d47565b905080841115610e375760405162461bcd60e51b8152600401610c47906143b4565b610e42868286611d7a565b9150610e58868684610e52611da6565b87611dc1565b50949350505050565b805115610eae57610e728282611f44565b7fd66d6a9810a5cef78b704e7e04334961e997c81d337f029f74637f060f3d8d65338383604051610ea5939291906143dd565b60405180910390a15b5050565b600033610ec0858285611fb4565b610ecb85858561202e565b60019150505b9392505050565b6001600160a01b038516331480610ef45750610ef48533610b8c565b610f105760405162461bcd60e51b8152600401610c4790614404565b610f1d85858585856121f5565b5050505050565b6000828152600f6020526040902060010154610f3f816123e3565b610f4983836123f0565b505050565b6001600160a01b0381163314610fbe5760405162461bcd60e51b815260206004820152602f60248201527f416363657373436f6e74726f6c3a2063616e206f6e6c792072656e6f756e636560448201526e103937b632b9903337b91039b2b63360891b6064820152608401610c47565b610eae8282612476565b600033610d4f818585610fdb8383611b5c565b610fe59190614469565b611c22565b60006002600c54141561100f5760405162461bcd60e51b8152600401610c4790614481565b6002600c55600080516020614aa283398151915261102c816123e3565b601154600160281b90046001600160a01b031615806110cf575060115460405163caa0eb3b60e01b8152600160281b82046001600160a01b03169163caa0eb3b9161108b91879164010000000090910460ff16906012906004016144b8565b602060405180830381865afa1580156110a8573d6000803e3d6000fd5b505050506040513d601f19601f820116820180604052508101906110cc919061451d565b42105b156110f0576110dd836114a0565b915081156110f0576110f083338461202e565b604080513381526001600160a01b03851660208201529081018390527f41935516b8d6d5b39d0a956dc3fca20f1f9d92443acd2b09e233bdf947dada1b9060600160405180910390a1506001600c55919050565b60006002600c5414156111695760405162461bcd60e51b8152600401610c4790614481565b6002600c55600080516020614aa2833981519152611186816123e3565b60135461010090046001600160a01b0316158061121e575060135460405163caa0eb3b60e01b81526001600160a01b036101008304169163caa0eb3b916111da91889160ff909116906014906004016144b8565b602060405180830381865afa1580156111f7573d6000803e3d6000fd5b505050506040513d601f19601f8201168201806040525081019061121b919061451d565b42105b156112515761122d8484610be0565b915081156112515761125184338585604051806020016040528060008152506124dd565b604080513381526001600160a01b0386166020820152908101849052606081018390527f6c1a075bfb1e43c26879540ca0c80edfc66f006a4614e4483e111955f42e98889060800160405180910390a1506001600c5592915050565b60006112c7600080516020614ae2833981519152336114d3565b6112d2576000610ed1565b610ed18383612607565b6000610ed18383610be0565b336000908152600e6020526040812054610c75908390611c16565b606081518351146113685760405162461bcd60e51b815260206004820152602960248201527f455243313135353a206163636f756e747320616e6420696473206c656e677468604482015268040dad2e6dac2e8c6d60bb1b6064820152608401610c47565b600083516001600160401b0381111561138357611383613b80565b6040519080825280602002602001820160405280156113ac578160200160208202803683370190505b50905060005b8451811015611424576113f78582815181106113d0576113d0614536565b60200260200101518583815181106113ea576113ea614536565b6020026020010151610be0565b82828151811061140957611409614536565b602090810291909101015261141d8161454c565b90506113b2565b509392505050565b6001600160a01b038216600090815260056020526040812081908190611453908590612616565b915091508161146a57611465856114a0565b61146c565b805b95945050505050565b336000908152600d60209081526040808320548151928301909152828252610ed19185918591610e08565b6001600160a01b031660009081526020819052604090205490565b6000610ed16114ca8484610be0565b610d3c8461270d565b6000918252600f602090815260408084206001600160a01b0393909316845291905290205460ff1690565b336000908152600d60209081526040808320548151928301909152828252610ed19185918591611a26565b606060048054610ca590614379565b60007f2c95f646d7033c5b1f0ff0b069bf367786555798c4a6d29fdd04e5009fe72543611564816123e3565b61156c61271d565b91505b5090565b6000806000611583846006612616565b915091508161159457600254611596565b805b949350505050565b60006115ad85610d3c8461270d565b90506115968185858886612777565b7f9f5e37ff3a64b04b72b5b1811abfcf4517dd143202c8aa61348ea257fa96a0826115e6816123e3565b60118054640100000000600160c81b031916600160281b6001600160a01b0388160264ff0000000019161764010000000060ff87160217905561162b60128484613a2c565b507f9af8bb2214b95b73a62820901e712471a3a811d6bbbfcb6ca125ea22c2d2e34f3386868686604051611663959493929190614567565b60405180910390a15050505050565b610eae338383612928565b60006116918561168c8461270d565b612a01565b90506115968585858486612777565b600033816116ae8286611b5c565b90508381101561170e5760405162461bcd60e51b815260206004820152602560248201527f45524332303a2064656372656173656420616c6c6f77616e63652062656c6f77604482015264207a65726f60d81b6064820152608401610c47565b61171b8286868403611c22565b506001949350505050565b600033610d4f81858561202e565b6060816001600160401b0381111561174e5761174e613b80565b60405190808252806020026020018201604052801561178157816020015b606081526020019060019003908161176c5790505b50905060005b82811015611821576117f1308585848181106117a5576117a5614536565b90506020028101906117b791906145c7565b8080601f016020809104026020016040519081016040528093929190818152602001838380828437600092019190915250612a1892505050565b82828151811061180357611803614536565b602002602001018190525080806118199061454c565b915050611787565b5092915050565b6000611842600080516020614b49833981519152336114d3565b61184d576000610c75565b610c7582612a3d565b6001600160a01b0381166000908152600e60205260408120546115969085908590859061167d565b6001600160a01b0381166000908152600e60205260408120546115969085908590859061159e565b60006118c0600080516020614ae2833981519152336114d3565b6118cb576000610ed1565b610ed18383612a62565b7f4050867f5f2e7b09df27b54fd9dd2dc48115dba018cf621a03355f7966666ae06118ff816123e3565b601380546001600160a81b0319166101006001600160a01b0388160260ff19161760ff861617905561193360148484613a2c565b507f42f243812a6dea299bc14e603debefbb1851dd9841410ea5487442341d6aab003386868686604051611663959493929190614567565b6000806119783386610be0565b116119ba5760405162461bcd60e51b81526020600482015260126024820152712727aa2fa922a1a2a4a82a2fa427a62222a960711b6044820152606401610c47565b611a0686866119c93389611d47565b8787878080601f016020809104026020016040519081016040528093929190818152602001838380828437600092019190915250611dc192505050565b5093949350505050565b6000610c7582670de0b6b3a76400006000611d7a565b600080611a333386611d47565b905080841115611a555760405162461bcd60e51b8152600401610c47906143b4565b611a60868286612a6e565b9150610e58828688610e52611da6565b6001600160a01b0381166000908152600e6020526040812054610c759083906114bb565b6000828152600f6020526040902060010154611aaf816123e3565b610f498383612476565b600080516020614b69833981519152611ad1816123e3565b8180611ae8575060115463ffffffff908116908616115b15611b03576011805463ffffffff191663ffffffff87161790555b7f48184800c8d42238cf81f2b94d534a99087d5f0a99f6b1506c206f3bd653693233868686604051611663949392919061460d565b6001600160a01b0381166000908152600e6020526040812054610c759083906112dc565b6001600160a01b03918216600090815260016020908152604080832093909416825291909152205490565b6000611ba1600080516020614b49833981519152336114d3565b61156f576000610c75565b6001600160a01b038516331480611bc85750611bc88533610b8c565b611be45760405162461bcd60e51b8152600401610c4790614404565b610f1d85858585856124dd565b60006001600160e01b03198216637965db0b60e01b1480610c755750610c7582612aa5565b6000610ed18383612af5565b6001600160a01b038316611c845760405162461bcd60e51b8152602060048201526024808201527f45524332303a20617070726f76652066726f6d20746865207a65726f206164646044820152637265737360e01b6064820152608401610c47565b6001600160a01b038216611ce55760405162461bcd60e51b815260206004820152602260248201527f45524332303a20617070726f766520746f20746865207a65726f206164647265604482015261737360f01b6064820152608401610c47565b6001600160a01b0383811660008181526001602090815260408083209487168084529482529182902085905590518481527f8c5be1e5ebec7d5bd14f71427d1e84f3dd0314c0f7b2291e5b200ac8c7c3b92591015b60405180910390a3505050565b6000611d61600080516020614b49833981519152846114d3565b611d6c576000610ed1565b670de0b6b3a7640000610ed1565b600081831015611d9c5760405162461bcd60e51b8152600401610c47906143b4565b6115968484612b14565b60006010546001611db79190614469565b6010819055919050565b6002600c541415611de45760405162461bcd60e51b8152600401610c4790614481565b6002600c5584611e065760405162461bcd60e51b8152600401610c479061465a565b6001600160a01b038416611e2c5760405162461bcd60e51b8152600401610c479061467c565b60008311611e4c5760405162461bcd60e51b8152600401610c47906146a0565b60008211611e855760405162461bcd60e51b8152600401610c47906020808252600490820152630c17d25160e21b604082015260600190565b60408051868152602081018590526001600160a01b0386169133917fdcbc1c05240f31ff3ad067ef1ee35ce4997762752e3a095284754544f4c709d7910160405180910390a37f5ed31a4c06e645f3918576e173ec5a8115dbce3fcc93bfe3661a70cdc9334d7c338587868686604051611f04969594939291906146c2565b60405180910390a1611f1885858585612b29565b611f228484612b7d565b611f2e84838584612c56565b611f388282610e61565b50506001600c55505050565b6000611f503384610be0565b1180611f6f5750611f6f600080516020614b69833981519152336114d3565b610eae5760405162461bcd60e51b8152602060048201526016602482015275082a6a68aa8be929c8c9ea49a82a8929e9cbe82aaa8960531b6044820152606401610c47565b6000611fc08484611b5c565b90506000198114612028578181101561201b5760405162461bcd60e51b815260206004820152601d60248201527f45524332303a20696e73756666696369656e7420616c6c6f77616e63650000006044820152606401610c47565b6120288484848403611c22565b50505050565b6001600160a01b0383166120925760405162461bcd60e51b815260206004820152602560248201527f45524332303a207472616e736665722066726f6d20746865207a65726f206164604482015264647265737360d81b6064820152608401610c47565b6001600160a01b0382166120f45760405162461bcd60e51b815260206004820152602360248201527f45524332303a207472616e7366657220746f20746865207a65726f206164647260448201526265737360e81b6064820152608401610c47565b6120ff838383612d69565b6001600160a01b038316600090815260208190526040902054818110156121775760405162461bcd60e51b815260206004820152602660248201527f45524332303a207472616e7366657220616d6f756e7420657863656564732062604482015265616c616e636560d01b6064820152608401610c47565b6001600160a01b038085166000908152602081905260408082208585039055918516815290812080548492906121ae908490614469565b92505081905550826001600160a01b0316846001600160a01b0316600080516020614b29833981519152846040516121e891815260200190565b60405180910390a3612028565b81518351146122575760405162461bcd60e51b815260206004820152602860248201527f455243313135353a2069647320616e6420616d6f756e7473206c656e677468206044820152670dad2e6dac2e8c6d60c31b6064820152608401610c47565b6001600160a01b03841661227d5760405162461bcd60e51b8152600401610c479061470b565b3361228c818787878787612de5565b60005b84518110156123755760008582815181106122ac576122ac614536565b6020026020010151905060008583815181106122ca576122ca614536565b60209081029190910181015160008481526009835260408082206001600160a01b038e16835290935291909120549091508181101561231b5760405162461bcd60e51b8152600401610c4790614750565b60008381526009602090815260408083206001600160a01b038e8116855292528083208585039055908b1682528120805484929061235a908490614469565b925050819055505050508061236e9061454c565b905061228f565b50846001600160a01b0316866001600160a01b0316826001600160a01b03167f4a39dc06d4c0dbc64b70af90fd698a233a518aa5d07e595d983b8c0526c8f7fb87876040516123c592919061479a565b60405180910390a46123db818787878787612e58565b505050505050565b6123ed8133612fb4565b50565b6123fa82826114d3565b610eae576000828152600f602090815260408083206001600160a01b03851684529091529020805460ff191660011790556124323390565b6001600160a01b0316816001600160a01b0316837f2f8788117e7eff1d82e926ec794901d17c78024a50270940304540a733656f0d60405160405180910390a45050565b61248082826114d3565b15610eae576000828152600f602090815260408083206001600160a01b0385168085529252808320805460ff1916905551339285917ff6391f5c32d9c69d2a47ea670b442974b53935d1edc7fd64eb21e047a839171b9190a45050565b6001600160a01b0384166125035760405162461bcd60e51b8152600401610c479061470b565b33600061250f85613018565b9050600061251c85613018565b905061252c838989858589612de5565b60008681526009602090815260408083206001600160a01b038c1684529091529020548581101561256f5760405162461bcd60e51b8152600401610c4790614750565b60008781526009602090815260408083206001600160a01b038d8116855292528083208985039055908a168252812080548892906125ae908490614469565b909155505060408051888152602081018890526001600160a01b03808b16928c82169291881691600080516020614a82833981519152910160405180910390a46125fc848a8a8a8a8a613063565b505050505050505050565b6000610ed18361168c8461270d565b600080600084116126625760405162461bcd60e51b815260206004820152601660248201527504552433230536e617073686f743a20696420697320360541b6044820152606401610c47565b61266a61311e565b8411156126b95760405162461bcd60e51b815260206004820152601d60248201527f4552433230536e617073686f743a206e6f6e6578697374656e742069640000006044820152606401610c47565b60006126c58486613129565b84549091508114156126de576000809250925050612706565b60018460010182815481106126f5576126f5614536565b906000526020600020015492509250505b9250929050565b6000670de0b6b3a7640000610c75565b600061272d600880546001019055565b600061273761311e565b90507f8030e83b04d87bef53480e26263266d6ca66863aa8506aca6f2559d18aa1cb678160405161276a91815260200190565b60405180910390a1919050565b6002600c54141561279a5760405162461bcd60e51b8152600401610c4790614481565b6002600c55846127bc5760405162461bcd60e51b8152600401610c479061465a565b6001600160a01b0384166127e25760405162461bcd60e51b8152600401610c479061467c565b6001600160a01b0383166128225760405162461bcd60e51b8152602060048201526007602482015266182fa7aba722a960c91b6044820152606401610c47565b600082116128425760405162461bcd60e51b8152600401610c47906146a0565b60408051868152602081018490526001600160a01b03808616929087169133917ffbde797d201c681b91056529119e0b02407c7bb96a4a2c75c01fc9667232c8db910160405180910390a4604080513381526001600160a01b038681166020830152851681830152606081018790526080810184905260a0810183905290517f01eda009fc2f79286ad5dee476bdf7b1f0a1d23ab4a929f51ca8399724f184079181900360c00190a16001600160a01b038316331461290657612906833384611fb4565b61291083836131ec565b61291b838284613334565b611f3885858585856134b6565b816001600160a01b0316836001600160a01b0316141561299c5760405162461bcd60e51b815260206004820152602960248201527f455243313135353a2073657474696e6720617070726f76616c20737461747573604482015268103337b91039b2b63360b91b6064820152608401610c47565b6001600160a01b038381166000818152600a6020908152604080832094871680845294825291829020805460ff191686151590811790915591519182527f17307eab39ab6107e8899845ad3d59bd9653f200f220920489ca2b5937696c319101611d3a565b6000612a0d8383612b14565b610ed1906001614469565b6060610ed18383604051806060016040528060278152602001614b026027913961350b565b6000610c7582612a4d3333611d47565b336000908152600d6020526040902054612a6e565b6000610ed18383611c16565b600081831015612a905760405162461bcd60e51b8152600401610c47906143b4565b612a9a8484612af5565b611596906001614469565b60006001600160e01b03198216636cdb3d1360e11b1480612ad657506001600160e01b031982166303a24d0760e21b145b80610c7557506301ffc9a760e01b6001600160e01b0319831614610c75565b600081612b0a670de0b6b3a7640000856147bf565b610ed191906147de565b6000670de0b6b3a7640000612b0a83856147bf565b612b41600080516020614b49833981519152336114d3565b6120285760405162461bcd60e51b815260206004820152600d60248201526c2727aa2fa222a827a9a4aa27a960991b6044820152606401610c47565b6001600160a01b038216612bd35760405162461bcd60e51b815260206004820152601f60248201527f45524332303a206d696e7420746f20746865207a65726f2061646472657373006044820152606401610c47565b612bdf60008383612d69565b8060026000828254612bf19190614469565b90915550506001600160a01b03821660009081526020819052604081208054839290612c1e908490614469565b90915550506040518181526001600160a01b03831690600090600080516020614b298339815191529060200160405180910390a35050565b6001600160a01b038416612cb65760405162461bcd60e51b815260206004820152602160248201527f455243313135353a206d696e7420746f20746865207a65726f206164647265736044820152607360f81b6064820152608401610c47565b336000612cc285613018565b90506000612ccf85613018565b9050612ce083600089858589612de5565b60008681526009602090815260408083206001600160a01b038b16845290915281208054879290612d12908490614469565b909155505060408051878152602081018790526001600160a01b03808a169260009291871691600080516020614a82833981519152910160405180910390a4612d6083600089898989613063565b50505050505050565b6011546012805460408051602080840282018101909252828152610f4994600160281b81046001600160a01b03169464010000000090910460ff16939192909190830182828015612dd957602002820191906000526020600020905b815481526020019060010190808311612dc5575b505050505086866135e8565b60135460148054604080516020808402820181019092528281526123db946001600160a01b036101008204169460ff909116939192909190830182828015612e4c57602002820191906000526020600020905b815481526020019060010190808311612e38575b505050505088886135e8565b6001600160a01b0384163b156123db5760405163bc197c8160e01b81526001600160a01b0385169063bc197c8190612e9c9089908990889088908890600401614800565b6020604051808303816000875af1925050508015612ed7575060408051601f3d908101601f19168201909252612ed491810190614852565b60015b612f8457612ee361486f565b806308c379a01415612f1d5750612ef861488b565b80612f035750612f1f565b8060405162461bcd60e51b8152600401610c479190613b54565b505b60405162461bcd60e51b815260206004820152603460248201527f455243313135353a207472616e7366657220746f206e6f6e20455243313135356044820152732932b1b2b4bb32b91034b6b83632b6b2b73a32b960611b6064820152608401610c47565b6001600160e01b0319811663bc197c8160e01b14612d605760405162461bcd60e51b8152600401610c4790614914565b612fbe82826114d3565b610eae57612fd6816001600160a01b0316601461383d565b612fe183602061383d565b604051602001612ff292919061495c565b60408051601f198184030181529082905262461bcd60e51b8252610c4791600401613b54565b6040805160018082528183019092526060916000919060208083019080368337019050509050828160008151811061305257613052614536565b602090810291909101015292915050565b6001600160a01b0384163b156123db5760405163f23a6e6160e01b81526001600160a01b0385169063f23a6e61906130a790899089908890889088906004016149cb565b6020604051808303816000875af19250505080156130e2575060408051601f3d908101601f191682019092526130df91810190614852565b60015b6130ee57612ee361486f565b6001600160e01b0319811663f23a6e6160e01b14612d605760405162461bcd60e51b8152600401610c4790614914565b6000610c8660085490565b815460009061313a57506000610c75565b82546000905b8082101561319657600061315483836139d8565b90508486828154811061316957613169614536565b9060005260206000200154111561318257809150613190565b61318d816001614469565b92505b50613140565b6000821180156131cb575083856131ae600185614a10565b815481106131be576131be614536565b9060005260206000200154145b156131e4576131db600183614a10565b92505050610c75565b509050610c75565b6001600160a01b03821661324c5760405162461bcd60e51b815260206004820152602160248201527f45524332303a206275726e2066726f6d20746865207a65726f206164647265736044820152607360f81b6064820152608401610c47565b61325882600083612d69565b6001600160a01b038216600090815260208190526040902054818110156132cc5760405162461bcd60e51b815260206004820152602260248201527f45524332303a206275726e20616d6f756e7420657863656564732062616c616e604482015261636560f01b6064820152608401610c47565b6001600160a01b03831660009081526020819052604081208383039055600280548492906132fb908490614a10565b90915550506040518281526000906001600160a01b03851690600080516020614b298339815191529060200160405180910390a3505050565b6001600160a01b0383166133965760405162461bcd60e51b815260206004820152602360248201527f455243313135353a206275726e2066726f6d20746865207a65726f206164647260448201526265737360e81b6064820152608401610c47565b3360006133a284613018565b905060006133af84613018565b90506133cf83876000858560405180602001604052806000815250612de5565b60008581526009602090815260408083206001600160a01b038a1684529091529020548481101561344e5760405162461bcd60e51b8152602060048201526024808201527f455243313135353a206275726e20616d6f756e7420657863656564732062616c604482015263616e636560e01b6064820152608401610c47565b60008681526009602090815260408083206001600160a01b038b81168086529184528285208a8703905582518b81529384018a9052909290881691600080516020614a82833981519152910160405180910390a4604080516020810190915260009052612d60565b6134ce600080516020614ae2833981519152846114d3565b610f1d5760405162461bcd60e51b815260206004820152600e60248201526d2727aa2faba4aa24222920aba2a960911b6044820152606401610c47565b60606001600160a01b0384163b6135735760405162461bcd60e51b815260206004820152602660248201527f416464726573733a2064656c65676174652063616c6c20746f206e6f6e2d636f6044820152651b9d1c9858dd60d21b6064820152608401610c47565b600080856001600160a01b03168560405161358e9190614a27565b600060405180830381855af49150503d80600081146135c9576040519150601f19603f3d011682016040523d82523d6000602084013e6135ce565b606091505b50915091506135de8282866139f3565b9695505050505050565b613600600080516020614ac2833981519152836114d3565b8061361e575061361e600080516020614ac2833981519152826114d3565b1561362857610f1d565b6001600160a01b038216158061364557506001600160a01b038116155b1561364f57610f1d565b613667600080516020614aa2833981519152826114d3565b1561367157610f1d565b60115463ffffffff164211156136c15760405162461bcd60e51b815260206004820152601560248201527410d1549512519250d0551253d397d1561412549151605a1b6044820152606401610c47565b6001600160a01b038516158015906136d95750600084115b15610f1d5760405163caa0eb3b60e01b81526001600160a01b0386169063caa0eb3b9061370e90859088908890600401614a43565b602060405180830381865afa15801561372b573d6000803e3d6000fd5b505050506040513d601f19601f8201168201806040525081019061374f919061451d565b42101561378c5760405162461bcd60e51b815260206004820152600b60248201526a29a2a72222a92faa24a2a960a91b6044820152606401610c47565b60405163caa0eb3b60e01b81526001600160a01b0386169063caa0eb3b906137bc90849088908890600401614a43565b602060405180830381865afa1580156137d9573d6000803e3d6000fd5b505050506040513d601f19601f820116820180604052508101906137fd919061451d565b421015610f1d5760405162461bcd60e51b815260206004820152600e60248201526d2922a1a4a824a2a72a2faa24a2a960911b6044820152606401610c47565b6060600061384c8360026147bf565b613857906002614469565b6001600160401b0381111561386e5761386e613b80565b6040519080825280601f01601f191660200182016040528015613898576020820181803683370190505b509050600360fc1b816000815181106138b3576138b3614536565b60200101906001600160f81b031916908160001a905350600f60fb1b816001815181106138e2576138e2614536565b60200101906001600160f81b031916908160001a90535060006139068460026147bf565b613911906001614469565b90505b6001811115613989576f181899199a1a9b1b9c1cb0b131b232b360811b85600f166010811061394557613945614536565b1a60f81b82828151811061395b5761395b614536565b60200101906001600160f81b031916908160001a90535060049490941c9361398281614a6a565b9050613914565b508315610ed15760405162461bcd60e51b815260206004820181905260248201527f537472696e67733a20686578206c656e67746820696e73756666696369656e746044820152606401610c47565b60006139e760028484186147de565b610ed190848416614469565b60608315613a02575081610ed1565b825115613a125782518084602001fd5b8160405162461bcd60e51b8152600401610c479190613b54565b828054828255906000526020600020908101928215613a67579160200282015b82811115613a67578235825591602001919060010190613a4c565b5061156f9291505b8082111561156f5760008155600101613a6f565b80356001600160a01b0381168114613a9a57600080fd5b919050565b60008060408385031215613ab257600080fd5b613abb83613a83565b946020939093013593505050565b6001600160e01b0319811681146123ed57600080fd5b600060208284031215613af157600080fd5b8135610ed181613ac9565b60005b83811015613b17578181015183820152602001613aff565b838111156120285750506000910152565b60008151808452613b40816020860160208601613afc565b601f01601f19169290920160200192915050565b602081526000610ed16020830184613b28565b600060208284031215613b7957600080fd5b5035919050565b634e487b7160e01b600052604160045260246000fd5b601f8201601f191681016001600160401b0381118282101715613bbb57613bbb613b80565b6040525050565b600082601f830112613bd357600080fd5b81356001600160401b03811115613bec57613bec613b80565b604051613c03601f8301601f191660200182613b96565b818152846020838601011115613c1857600080fd5b816020850160208301376000918101602001919091529392505050565b60008060008060808587031215613c4b57600080fd5b84359350613c5b60208601613a83565b92506040850135915060608501356001600160401b03811115613c7d57600080fd5b613c8987828801613bc2565b91505092959194509250565b60008060408385031215613ca857600080fd5b8235915060208301356001600160401b03811115613cc557600080fd5b613cd185828601613bc2565b9150509250929050565b600080600060608486031215613cf057600080fd5b613cf984613a83565b9250613d0760208501613a83565b9150604084013590509250925092565b60006001600160401b03821115613d3057613d30613b80565b5060051b60200190565b600082601f830112613d4b57600080fd5b81356020613d5882613d17565b604051613d658282613b96565b83815260059390931b8501820192828101915086841115613d8557600080fd5b8286015b84811015613da05780358352918301918301613d89565b509695505050505050565b600080600080600060a08688031215613dc357600080fd5b613dcc86613a83565b9450613dda60208701613a83565b935060408601356001600160401b0380821115613df657600080fd5b613e0289838a01613d3a565b94506060880135915080821115613e1857600080fd5b613e2489838a01613d3a565b93506080880135915080821115613e3a57600080fd5b50613e4788828901613bc2565b9150509295509295909350565b60008060408385031215613e6757600080fd5b82359150613e7760208401613a83565b90509250929050565b600060208284031215613e9257600080fd5b610ed182613a83565b60008060408385031215613eae57600080fd5b50508035926020909101359150565b60008060408385031215613ed057600080fd5b82356001600160401b0380821115613ee757600080fd5b818501915085601f830112613efb57600080fd5b81356020613f0882613d17565b604051613f158282613b96565b83815260059390931b8501820192828101915089841115613f3557600080fd5b948201945b83861015613f5a57613f4b86613a83565b82529482019490820190613f3a565b96505086013592505080821115613f7057600080fd5b50613cd185828601613d3a565b600081518084526020808501945080840160005b83811015613fad57815187529582019590820190600101613f91565b509495945050505050565b602081526000610ed16020830184613f7d565b60008060008060808587031215613fe157600080fd5b84359350613ff160208601613a83565b9250613fff60408601613a83565b9396929550929360600135925050565b60008083601f84011261402157600080fd5b5081356001600160401b0381111561403857600080fd5b6020830191508360208260051b850101111561270657600080fd5b6000806000806060858703121561406957600080fd5b61407285613a83565b9350602085013560ff8116811461408857600080fd5b925060408501356001600160401b038111156140a357600080fd5b6140af8782880161400f565b95989497509550505050565b80358015158114613a9a57600080fd5b600080604083850312156140de57600080fd5b6140e783613a83565b9150613e77602084016140bb565b6000806020838503121561410857600080fd5b82356001600160401b0381111561411e57600080fd5b61412a8582860161400f565b90969095509350505050565b6000602080830181845280855180835260408601915060408160051b870101925083870160005b8281101561418b57603f19888603018452614179858351613b28565b9450928501929085019060010161415d565b5092979650505050505050565b6000806000606084860312156141ad57600080fd5b833592506141bd60208501613a83565b91506141cb60408501613a83565b90509250925092565b60008083601f8401126141e657600080fd5b5081356001600160401b038111156141fd57600080fd5b60208301915083602082850101111561270657600080fd5b60008060008060006080868803121561422d57600080fd5b8535945061423d60208701613a83565b93506040860135925060608601356001600160401b0381111561425f57600080fd5b61426b888289016141d4565b969995985093965092949392505050565b6000806000806060858703121561429257600080fd5b843563ffffffff811681146142a657600080fd5b935060208501356001600160401b038111156142c157600080fd5b6142cd878288016141d4565b90945092506142e09050604086016140bb565b905092959194509250565b600080604083850312156142fe57600080fd5b61430783613a83565b9150613e7760208401613a83565b600080600080600060a0868803121561432d57600080fd5b61433686613a83565b945061434460208701613a83565b9350604086013592506060860135915060808601356001600160401b0381111561436d57600080fd5b613e4788828901613bc2565b600181811c9082168061438d57607f821691505b602082108114156143ae57634e487b7160e01b600052602260045260246000fd5b50919050565b6020808252600f908201526e4d494e5f53484152455f524154494f60881b604082015260600190565b60018060a01b038416815282602082015260606040820152600061146c6060830184613b28565b6020808252602f908201527f455243313135353a2063616c6c6572206973206e6f7420746f6b656e206f776e60408201526e195c881b9bdc88185c1c1c9bdd9959608a1b606082015260800190565b634e487b7160e01b600052601160045260246000fd5b6000821982111561447c5761447c614453565b500190565b6020808252601f908201527f5265656e7472616e637947756172643a207265656e7472616e742063616c6c00604082015260600190565b60006060820160018060a01b0386168352602060ff861681850152606060408501528185548084526080860191508660005282600020935060005b8181101561450f578454835260019485019492840192016144f3565b509098975050505050505050565b60006020828403121561452f57600080fd5b5051919050565b634e487b7160e01b600052603260045260246000fd5b600060001982141561456057614560614453565b5060010190565b6001600160a01b0386811682528516602082015260ff84166040820152608060608201819052810182905260006001600160fb1b038311156145a857600080fd5b8260051b808560a08501376000920160a0019182525095945050505050565b6000808335601e198436030181126145de57600080fd5b8301803591506001600160401b038211156145f857600080fd5b60200191503681900382131561270657600080fd5b6001600160a01b038516815263ffffffff841660208201526060604082018190528101829052818360808301376000818301608090810191909152601f909201601f191601019392505050565b602080825260089082015267305f41535345545360c01b604082015260600190565b6020808252600a9082015269182fa922a1a2a4ab22a960b11b604082015260600190565b602080825260089082015267305f53484152455360c01b604082015260600190565b600060018060a01b03808916835280881660208401525085604083015284606083015283608083015260c060a08301526146ff60c0830184613b28565b98975050505050505050565b60208082526025908201527f455243313135353a207472616e7366657220746f20746865207a65726f206164604082015264647265737360d81b606082015260800190565b6020808252602a908201527f455243313135353a20696e73756666696369656e742062616c616e636520666f60408201526939103a3930b739b332b960b11b606082015260800190565b6040815260006147ad6040830185613f7d565b828103602084015261146c8185613f7d565b60008160001904831182151516156147d9576147d9614453565b500290565b6000826147fb57634e487b7160e01b600052601260045260246000fd5b500490565b6001600160a01b0386811682528516602082015260a06040820181905260009061482c90830186613f7d565b828103606084015261483e8186613f7d565b905082810360808401526146ff8185613b28565b60006020828403121561486457600080fd5b8151610ed181613ac9565b600060033d11156148885760046000803e5060005160e01c5b90565b600060443d10156148995790565b6040516003193d81016004833e81513d6001600160401b0381602484011181841117156148c857505050505090565b82850191508151818111156148e05750505050505090565b843d87010160208285010111156148fa5750505050505090565b61490960208286010187613b96565b509095945050505050565b60208082526028908201527f455243313135353a204552433131353552656365697665722072656a656374656040820152676420746f6b656e7360c01b606082015260800190565b76020b1b1b2b9b9a1b7b73a3937b61d1030b1b1b7bab73a1604d1b81526000835161498e816017850160208801613afc565b7001034b99036b4b9b9b4b733903937b6329607d1b60179184019182015283516149bf816028840160208801613afc565b01602801949350505050565b6001600160a01b03868116825285166020820152604081018490526060810183905260a060808201819052600090614a0590830184613b28565b979650505050505050565b600082821015614a2257614a22614453565b500390565b60008251614a39818460208701613afc565b9190910192915050565b60018060a01b038416815282602082015260606040820152600061146c6060830184613f7d565b600081614a7957614a79614453565b50600019019056fec3d58168c5ae7397731d063d5bbf3d657854427343f4c083240f7aacaa2d0f62a49d0f1c9ff1006cadfa9c5663622056113f1b69c0f273e4a1e170ee907cde94f40ec076ff2e3a403e1c18632267861d39085e7f359ca5665846f335632cf819779b9d7b1cefd23059ce3e2b194efb3183a6685dd830e8cbb723b0cbeb982b28416464726573733a206c6f772d6c6576656c2064656c65676174652063616c6c206661696c6564ddf252ad1be2c89b69c2b068fc378daa952ba7f163c4a11628f55a4df523b3efe16b3d8fc79140c62874442c8b523e98592b429e73c0db67686a5b378b29f336d646ae07eb0d0f77457502a65e7407930dff4cd4fd99abc6aac87a753f4c8a42a26469706673582212205fe7e43d1b1fab933118d2104d19d3fc815a4589b0d279c882525f01f1290bcf64736f6c634300080a00334cbb985fecd7e86ede589f695f46f07d40afe7cb60f6049028c0b9a6bfaf649ec23bede8eabca44a15d0193051ac5429f3d014a7e297a4e78f67d06657d14269d461edcf12d14f5a18f27560fb18cfcb7df6fedb1d46c3664b9634623e9a172d4bbeb6fd3e5222e55f2f8b0c35bc228e0a06a25d0da772fdb02c3b92fa004f88f2491dcc230f29376998d72c6c3ea4cc17d3791c66e46b32ea439c19610d51dbc1a04980ce16d8574a4108b9f0a95358068379059fe211b7eb60a9f805237e60c091f023e1c6780346fd5f1017395079a3ea0e07d94a4f9e7273a43e3fa2a7e8da44ae5b31a7809c0f15e7306bdde44fffb60fdee235af40c70b73a6610de41ea2646970667358221220ee18638ea29d0e1e52420e70163f0c4370b7981895a557cf3253241ea7f3370064736f6c634300080a0033",
  "linkReferences": {},
  "deployedLinkReferences": {}
}