{
  "_format": "hh-sol-artifact-1",
  "contractName": "OffchainAssetVaultFactory",
  "sourceName": "contracts/vault/offchainAsset/OffchainAssetVaultFactory.sol",
  "abi": [
    {
      "anonymous": false,
      "inputs": [
        {
          "indexed": false,
          "internalType": "address",
          "name": "sender",
          "type": "address"
        },
        {
          "indexed": false,
          "internalType": "address",
          "name": "implementation",
          "type": "address"
        }
      ],
      "name": "Implementation",
      "type": "event"
    },
    {
      "anonymous": false,
      "inputs": [
        {
          "indexed": false,
          "internalType": "address",
          "name": "sender",
          "type": "address"
        },
        {
          "indexed": false,
          "internalType": "address",
          "name": "child",
          "type": "address"
        }
      ],
      "name": "NewChild",
      "type": "event"
    },
    {
      "inputs": [
        {
          "internalType": "bytes",
          "name": "data_",
          "type": "bytes"
        }
      ],
      "name": "createChild",
      "outputs": [
        {
          "internalType": "address",
          "name": "",
          "type": "address"
        }
      ],
      "stateMutability": "nonpayable",
      "type": "function"
    },
    {
      "inputs": [
        {
          "components": [
            {
              "internalType": "address",
              "name": "admin",
              "type": "address"
            },
            {
              "components": [
                {
                  "internalType": "address",
                  "name": "asset",
                  "type": "address"
                },
                {
                  "internalType": "string",
                  "name": "name",
                  "type": "string"
                },
                {
                  "internalType": "string",
                  "name": "symbol",
                  "type": "string"
                },
                {
                  "internalType": "string",
                  "name": "uri",
                  "type": "string"
                }
              ],
              "internalType": "struct ConstructionConfig",
              "name": "receiptVaultConfig",
              "type": "tuple"
            }
          ],
          "internalType": "struct ConstructionConfig",
          "name": "config_",
          "type": "tuple"
        }
      ],
      "name": "createChildTyped",
      "outputs": [
        {
          "internalType": "contract OffchainAssetVault",
          "name": "",
          "type": "address"
        }
      ],
      "stateMutability": "nonpayable",
      "type": "function"
    },
    {
      "inputs": [
        {
          "internalType": "address",
          "name": "maybeChild_",
          "type": "address"
        }
      ],
      "name": "isChild",
      "outputs": [
        {
          "internalType": "bool",
          "name": "",
          "type": "bool"
        }
      ],
      "stateMutability": "view",
      "type": "function"
    }
  ],
  "bytecode": "0x608060405234801561001057600080fd5b506001600055617a8a806100256000396000f3fe60806040523480156200001157600080fd5b5060043610620000465760003560e01c80632ea72a49146200004b57806362e86fdc146200008c578063fc91a89714620000a3575b600080fd5b620000626200005c366004620004c4565b620000f0565b60405173ffffffffffffffffffffffffffffffffffffffff90911681526020015b60405180910390f35b620000626200009d3660046200051a565b620002a1565b620000df620000b436600462000585565b73ffffffffffffffffffffffffffffffffffffffff1660009081526001602052604090205460ff1690565b604051901515815260200162000083565b60006002600054141562000165576040517f08c379a000000000000000000000000000000000000000000000000000000000815260206004820152601f60248201527f5265656e7472616e637947756172643a207265656e7472616e742063616c6c0060448201526064015b60405180910390fd5b6002600090815562000177836200034b565b73ffffffffffffffffffffffffffffffffffffffff811660009081526001602052604090205490915060ff16156200020c576040517f08c379a000000000000000000000000000000000000000000000000000000000815260206004820152600f60248201527f4455504c49434154455f4348494c44000000000000000000000000000000000060448201526064016200015c565b73ffffffffffffffffffffffffffffffffffffffff811660008181526001602081815260409283902080547fffffffffffffffffffffffffffffffffffffffffffffffffffffffffffffff00169092179091558151338152908101929092527f7da70c4e5387d7038610b79ca7d304caaef815826e51e67cf247135387a79bce910160405180910390a1600160005592915050565b60003073ffffffffffffffffffffffffffffffffffffffff16632ea72a4983604051602001620002d291906200065c565b6040516020818303038152906040526040518263ffffffff1660e01b8152600401620002ff9190620007f6565b6020604051808303816000875af11580156200031f573d6000803e3d6000fd5b505050506040513d601f19601f820116820180604052508101906200034591906200080b565b92915050565b60006200035b828401846200084e565b60405162000369906200039a565b6200037591906200096d565b604051809103906000f08015801562000392573d6000803e3d6000fd5b509392505050565b61702b8062000a2a83390190565b7f4e487b7100000000000000000000000000000000000000000000000000000000600052604160045260246000fd5b6040805190810167ffffffffffffffff81118282101715620003fd57620003fd620003a8565b60405290565b6040516080810167ffffffffffffffff81118282101715620003fd57620003fd620003a8565b600067ffffffffffffffff80841115620004475762000447620003a8565b604051601f85017fffffffffffffffffffffffffffffffffffffffffffffffffffffffffffffffe0908116603f01168101908282118183101715620004905762000490620003a8565b81604052809350858152868686011115620004aa57600080fd5b858560208301376000602087830101525050509392505050565b600060208284031215620004d757600080fd5b813567ffffffffffffffff811115620004ef57600080fd5b8201601f810184136200050157600080fd5b620005128482356020840162000429565b949350505050565b6000602082840312156200052d57600080fd5b813567ffffffffffffffff8111156200054557600080fd5b8201604081850312156200055857600080fd5b9392505050565b73ffffffffffffffffffffffffffffffffffffffff811681146200058257600080fd5b50565b6000602082840312156200059857600080fd5b813562000558816200055f565b60008083357fffffffffffffffffffffffffffffffffffffffffffffffffffffffffffffffe1843603018112620005db57600080fd5b830160208101925035905067ffffffffffffffff811115620005fc57600080fd5b8036038313156200060c57600080fd5b9250929050565b8183528181602085013750600060208284010152600060207fffffffffffffffffffffffffffffffffffffffffffffffffffffffffffffffe0601f840116840101905092915050565b60208152600082356200066f816200055f565b73ffffffffffffffffffffffffffffffffffffffff8082166020850152602085013591507fffffffffffffffffffffffffffffffffffffffffffffffffffffffffffffff81853603018212620006c457600080fd5b604084810152908401908135620006db816200055f565b166060840152620006f06020820182620005a5565b6080808601526200070660e08601828462000613565b915050620007186040830183620005a5565b7fffffffffffffffffffffffffffffffffffffffffffffffffffffffffffffffa0808785030160a08801526200075084838562000613565b9350620007616060860186620005a5565b95509250808785030160c088015250506200077e82848362000613565b9695505050505050565b6000815180845260005b81811015620007b05760208185018101518683018201520162000792565b81811115620007c3576000602083870101525b50601f017fffffffffffffffffffffffffffffffffffffffffffffffffffffffffffffffe0169290920160200192915050565b60208152600062000558602083018462000788565b6000602082840312156200081e57600080fd5b815162000558816200055f565b600082601f8301126200083d57600080fd5b620005588383356020850162000429565b6000602082840312156200086157600080fd5b813567ffffffffffffffff808211156200087a57600080fd5b90830190604082860312156200088f57600080fd5b62000899620003d7565b8235620008a6816200055f565b8152602083013582811115620008bb57600080fd5b929092019160808387031215620008d157600080fd5b620008db62000403565b8335620008e8816200055f565b8152602084013583811115620008fd57600080fd5b6200090b888287016200082b565b6020830152506040840135838111156200092457600080fd5b62000932888287016200082b565b6040830152506060840135838111156200094b57600080fd5b62000959888287016200082b565b606083015250602082015295945050505050565b60208152600073ffffffffffffffffffffffffffffffffffffffff808451166020840152602084015160408085015281815116606085015260208101519150608080850152620009c160e085018362000788565b915060408101517fffffffffffffffffffffffffffffffffffffffffffffffffffffffffffffffa0808685030160a0870152620009ff848362000788565b935060608301519250808685030160c0870152505062000a20828262000788565b9594505050505056fe60a06040523480156200001157600080fd5b506040516200702b3803806200702b8339810160408190526200003491620007bf565b8060200151806060015181602001518260400151816003908051906020019062000060929190620005d2565b50805162000076906004906020840190620005d2565b5050506200008a81620004ca60201b60201c565b506001600c55516001600160a01b039081166080526020820151511615620000e85760405162461bcd60e51b815260206004820152600d60248201526c1393d396915493d7d054d4d155609a1b604482015260640160405180910390fd5b6200010360008051602062006feb83398151915280620004e3565b6200013e7fe16b3d8fc79140c62874442c8b523e98592b429e73c0db67686a5b378b29f33660008051602062006feb833981519152620004e3565b6200015960008051602062006fab83398151915280620004e3565b620001947f779b9d7b1cefd23059ce3e2b194efb3183a6685dd830e8cbb723b0cbeb982b2860008051602062006fab833981519152620004e3565b620001af60008051602062006f8b83398151915280620004e3565b620001ea7fd646ae07eb0d0f77457502a65e7407930dff4cd4fd99abc6aac87a753f4c8a4260008051602062006f8b833981519152620004e3565b6200020560008051602062006f2b83398151915280620004e3565b620002407ff40ec076ff2e3a403e1c18632267861d39085e7f359ca5665846f335632cf81960008051602062006f2b833981519152620004e3565b6200025b60008051602062006fcb83398151915280620004e3565b620002967f9f5e37ff3a64b04b72b5b1811abfcf4517dd143202c8aa61348ea257fa96a08260008051602062006fcb833981519152620004e3565b620002b160008051602062006f6b83398151915280620004e3565b620002ec7f4050867f5f2e7b09df27b54fd9dd2dc48115dba018cf621a03355f7966666ae060008051602062006f6b833981519152620004e3565b620003076000805160206200700b83398151915280620004e3565b620003427f2c95f646d7033c5b1f0ff0b069bf367786555798c4a6d29fdd04e5009fe725436000805160206200700b833981519152620004e3565b6200035d60008051602062006f4b83398151915280620004e3565b620003987fa49d0f1c9ff1006cadfa9c5663622056113f1b69c0f273e4a1e170ee907cde9460008051602062006f4b833981519152620004e3565b8051620003b69060008051602062006feb833981519152906200052e565b8051620003d49060008051602062006fab833981519152906200052e565b8051620003f29060008051602062006f8b833981519152906200052e565b8051620004109060008051602062006f2b833981519152906200052e565b80516200042e9060008051602062006fcb833981519152906200052e565b80516200044c9060008051602062006f6b833981519152906200052e565b80516200046a906000805160206200700b833981519152906200052e565b8051620004889060008051602062006f4b833981519152906200052e565b7fa16eaaad935aa1b1f2fe1a2e50a26c06bf9b559be380236af19c78e6840facfd3382604051620004bb92919062000907565b60405180910390a150620009d6565b8051620004df90600b906020840190620005d2565b5050565b6000828152600f6020526040808220600101805490849055905190918391839186917fbd79b86ffe0ab8e8776151514217cd7cacd52c909f66475c3af44e129f0b00ff9190a4505050565b6000828152600f602090815260408083206001600160a01b038516845290915290205460ff16620004df576000828152600f602090815260408083206001600160a01b03851684529091529020805460ff191660011790556200058e3390565b6001600160a01b0316816001600160a01b0316837f2f8788117e7eff1d82e926ec794901d17c78024a50270940304540a733656f0d60405160405180910390a45050565b828054620005e09062000999565b90600052602060002090601f0160209004810192826200060457600085556200064f565b82601f106200061f57805160ff19168380011785556200064f565b828001600101855582156200064f579182015b828111156200064f57825182559160200191906001019062000632565b506200065d92915062000661565b5090565b5b808211156200065d576000815560010162000662565b634e487b7160e01b600052604160045260246000fd5b604080519081016001600160401b0381118282101715620006b357620006b362000678565b60405290565b604051608081016001600160401b0381118282101715620006b357620006b362000678565b80516001600160a01b0381168114620006f657600080fd5b919050565b60005b8381101562000718578181015183820152602001620006fe565b8381111562000728576000848401525b50505050565b600082601f8301126200074057600080fd5b81516001600160401b03808211156200075d576200075d62000678565b604051601f8301601f19908116603f0116810190828211818310171562000788576200078862000678565b81604052838152866020858801011115620007a257600080fd5b620007b5846020830160208901620006fb565b9695505050505050565b600060208284031215620007d257600080fd5b81516001600160401b0380821115620007ea57600080fd5b9083019060408286031215620007ff57600080fd5b620008096200068e565b6200081483620006de565b81526020830151828111156200082957600080fd5b9290920191608083870312156200083f57600080fd5b62000849620006b9565b6200085484620006de565b81526020840151838111156200086957600080fd5b62000877888287016200072e565b6020830152506040840151838111156200089057600080fd5b6200089e888287016200072e565b604083015250606084015183811115620008b757600080fd5b620008c5888287016200072e565b606083015250602082015295945050505050565b60008151808452620008f3816020860160208601620006fb565b601f01601f19169290920160200192915050565b600060018060a01b0380851683526040602084015280845116604084015260208401516040606085015281815116608085015260208101519150608060a085015262000958610100850183620008d9565b91506040810151607f19808685030160c0870152620009788483620008d9565b935060608301519250808685030160e08701525050620007b58282620008d9565b600181811c90821680620009ae57607f821691505b60208210811415620009d057634e487b7160e01b600052602260045260246000fd5b50919050565b608051616539620009f2600039600061079a01526165396000f3fe608060405234801561001057600080fd5b506004361061057f5760003560e01c806391d14854116102d7578063ba08765211610186578063cf97213b116100e3578063dd62ed3e11610097578063e985e9c51161007c578063e985e9c514610d8c578063ef8b30f714610dd5578063f242432a14610de857600080fd5b8063dd62ed3e14610d1f578063e05f2fb414610d6557600080fd5b8063d80ea0e7116100c8578063d80ea0e714610cd9578063d904f19414610cec578063d905777e14610d0c57600080fd5b8063cf97213b14610c9f578063d547741f14610cc657600080fd5b8063c63d75b61161013a578063c77b66c21161011f578063c77b66c214610c52578063cc05a01014610c65578063ce96cb7714610c8c57600080fd5b8063c63d75b6146107d7578063c6e6f59214610c3f57600080fd5b8063bc4c4d451161016b578063bc4c4d4514610bf2578063c3b61f7014610c05578063c54cafee14610c2c57600080fd5b8063ba08765214610bcc578063bbec4d0614610bdf57600080fd5b8063a318c1a411610234578063b25c17bc116101e8578063b460af94116101cd578063b460af9414610b6b578063b86bc74f14610b7e578063b9a2899414610ba557600080fd5b8063b25c17bc14610b31578063b3d7f6b914610b5857600080fd5b8063a9059cbb11610219578063a9059cbb14610ade578063ac9650d814610af1578063b0d601e514610b1157600080fd5b8063a318c1a414610ab8578063a457c2d714610acb57600080fd5b8063981b24d01161028b5780639feb8433116102705780639feb843314610a8a578063a217fddf14610a9d578063a22cb46514610aa557600080fd5b8063981b24d014610a645780639f40a7b314610a7757600080fd5b806394bf804d116102bc57806394bf804d14610a4157806395d89b4114610a545780639711715a14610a5c57600080fd5b806391d14854146109db578063943b58c614610a2157600080fd5b806336568abe116104335780634db208a811610390578063669419841161034457806370a082311161032957806370a082311461096b57806373ce2d13146109a157806385b68756146109c857600080fd5b806366941984146109315780636e553f651461095857600080fd5b80634ee2cd7e116103755780634ee2cd7e146108d057806350f4fc40146108e35780636057644b1461090a57600080fd5b80634db208a8146108895780634e1273f4146108b057600080fd5b806347298f82116103e7578063488bd7b0116103cc578063488bd7b0146108505780634abe4137146108635780634cdad5061461087657600080fd5b806347298f821461081d578063486ad2f21461083057600080fd5b8063395093511161041857806339509351146107c4578063402d267d146107d757806344f252a01461080a57600080fd5b806336568abe1461076d57806338d52e0f1461078057600080fd5b80631423feba116104e1578063248a9ca3116104955780632f2ff15d1161047a5780632f2ff15d14610724578063313ce5671461073757806334fb88421461074657600080fd5b8063248a9ca3146106ee5780632eb2c2d61461071157600080fd5b8063177769cb116104c6578063177769cb146106be57806318160ddd146106d357806323b872dd146106db57600080fd5b80631423feba1461068457806316ad25a51461069757600080fd5b806307a2d13a11610538578063095ea7b31161051d578063095ea7b31461064b5780630a28a4771461065e5780630e89341c1461067157600080fd5b806307a2d13a1461061157806307e9c0a21461062457600080fd5b806301ffc9a71161056957806301ffc9a7146105b25780630226b5d2146105d557806306fdde03146105fc57600080fd5b8062fdd58e1461058457806301e1d114146105aa575b600080fd5b610597610592366004615482565b610dfb565b6040519081526020015b60405180910390f35b610597610edd565b6105c56105c03660046154da565b610eed565b60405190151581526020016105a1565b6105977ff2491dcc230f29376998d72c6c3ea4cc17d3791c66e46b32ea439c19610d51db81565b610604610ef8565b6040516105a1919061556d565b61059761061f366004615580565b610f8a565b6105977f9f5e37ff3a64b04b72b5b1811abfcf4517dd143202c8aa61348ea257fa96a08281565b6105c5610659366004615482565b610fa3565b61059761066c366004615580565b610fbb565b61060461067f366004615580565b610fd6565b6105976106923660046156a5565b61106a565b6105977fe16b3d8fc79140c62874442c8b523e98592b429e73c0db67686a5b378b29f33681565b6106d16106cc366004615706565b61110d565b005b600254610597565b6105c56106e936600461574d565b61115e565b6105976106fc366004615580565b6000908152600f602052604090206001015490565b6106d161071f36600461581e565b611184565b6106d16107323660046158c8565b61124d565b604051601281526020016105a1565b6105977fc1a04980ce16d8574a4108b9f0a95358068379059fe211b7eb60a9f805237e6081565b6106d161077b3660046158c8565b611277565b60405173ffffffffffffffffffffffffffffffffffffffff7f00000000000000000000000000000000000000000000000000000000000000001681526020016105a1565b6105c56107d2366004615482565b611326565b6105976107e53660046158f4565b507fffffffffffffffffffffffffffffffffffffffffffffffffffffffffffffffff90565b6105976108183660046158f4565b611372565b61059761082b366004615482565b611589565b61059761083e3660046158f4565b600e6020526000908152604090205481565b61059761085e36600461590f565b61178e565b610597610871366004615482565b6117d5565b610597610884366004615580565b6117e1565b6105977fd461edcf12d14f5a18f27560fb18cfcb7df6fedb1d46c3664b9634623e9a172d81565b6108c36108be366004615931565b6117fc565b6040516105a19190615a2d565b6105976108de366004615482565b611954565b6105977f2c95f646d7033c5b1f0ff0b069bf367786555798c4a6d29fdd04e5009fe7254381565b6105977fc091f023e1c6780346fd5f1017395079a3ea0e07d94a4f9e7273a43e3fa2a7e881565b6105977f779b9d7b1cefd23059ce3e2b194efb3183a6685dd830e8cbb723b0cbeb982b2881565b6105976109663660046158c8565b6119c7565b6105976109793660046158f4565b73ffffffffffffffffffffffffffffffffffffffff1660009081526020819052604090205490565b6105977fc23bede8eabca44a15d0193051ac5429f3d014a7e297a4e78f67d06657d1426981565b6105976109d6366004615482565b6119f2565b6105c56109e93660046158c8565b6000918252600f6020908152604080842073ffffffffffffffffffffffffffffffffffffffff93909316845291905290205460ff1690565b6106d1610a2f366004615580565b336000908152600e6020526040902055565b610597610a4f3660046158c8565b611a0a565b610604611a35565b610597611a44565b610597610a72366004615580565b611a7f565b610597610a85366004615a40565b611aaa565b6106d1610a98366004615ac9565b611ac8565b610597600081565b6106d1610ab3366004615b42565b611bbb565b610597610ac6366004615a40565b611bc6565b6105c5610ad9366004615482565b611be9565b6105c5610aec366004615482565b611cc5565b610b04610aff366004615b6c565b611cd3565b6040516105a19190615bae565b6106d1610b1f366004615580565b336000908152600d6020526040902055565b6105977f4cbb985fecd7e86ede589f695f46f07d40afe7cb60f6049028c0b9a6bfaf649e81565b610597610b66366004615580565b611dc8565b610597610b79366004615c2e565b611e0e565b6105977fd646ae07eb0d0f77457502a65e7407930dff4cd4fd99abc6aac87a753f4c8a4281565b6105977ff40ec076ff2e3a403e1c18632267861d39085e7f359ca5665846f335632cf81981565b610597610bda366004615c2e565b611e43565b610597610bed36600461590f565b611e78565b6106d1610c00366004615ac9565b611ebf565b6105977f4050867f5f2e7b09df27b54fd9dd2dc48115dba018cf621a03355f7966666ae081565b610597610c3a366004615cac565b611f98565b610597610c4d366004615580565b612062565b610597610c603660046156a5565b612078565b6105977fda44ae5b31a7809c0f15e7306bdde44fffb60fdee235af40c70b73a6610de41e81565b610597610c9a3660046158f4565b61210c565b6105977fa49d0f1c9ff1006cadfa9c5663622056113f1b69c0f273e4a1e170ee907cde9481565b6106d1610cd43660046158c8565b61213d565b6106d1610ce7366004615d14565b612162565b610597610cfa3660046158f4565b600d6020526000908152604090205481565b610597610d1a3660046158f4565b61220e565b610597610d2d366004615d84565b73ffffffffffffffffffffffffffffffffffffffff918216600090815260016020908152604080832093909416825291909152205490565b6105977f4bbeb6fd3e5222e55f2f8b0c35bc228e0a06a25d0da772fdb02c3b92fa004f8881565b6105c5610d9a366004615d84565b73ffffffffffffffffffffffffffffffffffffffff9182166000908152600a6020908152604080832093909416825291909152205460ff1690565b610597610de3366004615580565b61223f565b6106d1610df6366004615dae565b61227c565b600073ffffffffffffffffffffffffffffffffffffffff8316610ea5576040517f08c379a000000000000000000000000000000000000000000000000000000000815260206004820152602a60248201527f455243313135353a2061646472657373207a65726f206973206e6f742061207660448201527f616c6964206f776e65720000000000000000000000000000000000000000000060648201526084015b60405180910390fd5b50600081815260096020908152604080832073ffffffffffffffffffffffffffffffffffffffff861684529091529020545b92915050565b6000610ee860025490565b905090565b6000610ed78261233e565b606060038054610f0790615e13565b80601f0160208091040260200160405190810160405280929190818152602001828054610f3390615e13565b8015610f805780601f10610f5557610100808354040283529160200191610f80565b820191906000526020600020905b815481529060010190602001808311610f6357829003601f168201915b5050505050905090565b6000610ed782670de0b6b3a7640000612394565b612394565b600033610fb18185856123a0565b5060019392505050565b336000908152600e6020526040812054610ed790839061178e565b6060600b8054610fe590615e13565b80601f016020809104026020016040519081016040528092919081815260200182805461101190615e13565b801561105e5780601f106110335761010080835404028352916020019161105e565b820191906000526020600020905b81548152906001019060200180831161104157829003601f168201915b50505050509050919050565b6000806110773386612554565b9050808411156110e3576040517f08c379a000000000000000000000000000000000000000000000000000000000815260206004820152600f60248201527f4d494e5f53484152455f524154494f00000000000000000000000000000000006044820152606401610e9c565b6110ee8682866125b5565b91506111048686846110fe61262b565b87612646565b50949350505050565b80511561115a5761111e828261293e565b7fd66d6a9810a5cef78b704e7e04334961e997c81d337f029f74637f060f3d8d6533838360405161115193929190615e67565b60405180910390a15b5050565b60003361116c8582856129ea565b611177858585612ac1565b60019150505b9392505050565b73ffffffffffffffffffffffffffffffffffffffff85163314806111ad57506111ad8533610d9a565b611239576040517f08c379a000000000000000000000000000000000000000000000000000000000815260206004820152602f60248201527f455243313135353a2063616c6c6572206973206e6f7420746f6b656e206f776e60448201527f6572206e6f7220617070726f76656400000000000000000000000000000000006064820152608401610e9c565b6112468585858585612d7f565b5050505050565b6000828152600f6020526040902060010154611268816130ca565b61127283836130d7565b505050565b73ffffffffffffffffffffffffffffffffffffffff8116331461131c576040517f08c379a000000000000000000000000000000000000000000000000000000000815260206004820152602f60248201527f416363657373436f6e74726f6c3a2063616e206f6e6c792072656e6f756e636560448201527f20726f6c657320666f722073656c6600000000000000000000000000000000006064820152608401610e9c565b61115a82826131cb565b33600081815260016020908152604080832073ffffffffffffffffffffffffffffffffffffffff87168452909152812054909190610fb1908290869061136d908790615ecb565b6123a0565b60006002600c5414156113e1576040517f08c379a000000000000000000000000000000000000000000000000000000000815260206004820152601f60248201527f5265656e7472616e637947756172643a207265656e7472616e742063616c6c006044820152606401610e9c565b6002600c557fa49d0f1c9ff1006cadfa9c5663622056113f1b69c0f273e4a1e170ee907cde94611410816130ca565b60115465010000000000900473ffffffffffffffffffffffffffffffffffffffff1615806114ea57506011546040517fcaa0eb3b00000000000000000000000000000000000000000000000000000000815265010000000000820473ffffffffffffffffffffffffffffffffffffffff169163caa0eb3b916114a691879164010000000090910460ff1690601290600401615ee3565b602060405180830381865afa1580156114c3573d6000803e3d6000fd5b505050506040513d601f19601f820116820180604052508101906114e79190615f56565b42105b156115285773ffffffffffffffffffffffffffffffffffffffff83166000908152602081905260409020549150811561152857611528833384612ac1565b6040805133815273ffffffffffffffffffffffffffffffffffffffff851660208201529081018390527f41935516b8d6d5b39d0a956dc3fca20f1f9d92443acd2b09e233bdf947dada1b9060600160405180910390a1506001600c55919050565b60006002600c5414156115f8576040517f08c379a000000000000000000000000000000000000000000000000000000000815260206004820152601f60248201527f5265656e7472616e637947756172643a207265656e7472616e742063616c6c006044820152606401610e9c565b6002600c557fa49d0f1c9ff1006cadfa9c5663622056113f1b69c0f273e4a1e170ee907cde94611627816130ca565b601354610100900473ffffffffffffffffffffffffffffffffffffffff1615806116f257506013546040517fcaa0eb3b00000000000000000000000000000000000000000000000000000000815273ffffffffffffffffffffffffffffffffffffffff6101008304169163caa0eb3b916116ae91889160ff90911690601490600401615ee3565b602060405180830381865afa1580156116cb573d6000803e3d6000fd5b505050506040513d601f19601f820116820180604052508101906116ef9190615f56565b42105b15611725576117018484610dfb565b91508115611725576117258433858560405180602001604052806000815250613286565b6040805133815273ffffffffffffffffffffffffffffffffffffffff86166020820152908101849052606081018390527f6c1a075bfb1e43c26879540ca0c80edfc66f006a4614e4483e111955f42e98889060800160405180910390a1506001600c5592915050565b3360009081527ffa28fc64f8b9997656380b5a677ba911f3345daefd6a231fea79bac7b3c30c13602052604081205460ff166117cb57600061117d565b61117d83836134d6565b600061117d8383610dfb565b336000908152600e6020526040812054610ed7908390612394565b6060815183511461188f576040517f08c379a000000000000000000000000000000000000000000000000000000000815260206004820152602960248201527f455243313135353a206163636f756e747320616e6420696473206c656e67746860448201527f206d69736d6174636800000000000000000000000000000000000000000000006064820152608401610e9c565b6000835167ffffffffffffffff8111156118ab576118ab615599565b6040519080825280602002602001820160405280156118d4578160200160208202803683370190505b50905060005b845181101561194c5761191f8582815181106118f8576118f8615f6f565b602002602001015185838151811061191257611912615f6f565b6020026020010151610dfb565b82828151811061193157611931615f6f565b602090810291909101015261194581615f9e565b90506118da565b509392505050565b73ffffffffffffffffffffffffffffffffffffffff82166000908152600560205260408120819081906119889085906134e5565b91509150816119bc5773ffffffffffffffffffffffffffffffffffffffff85166000908152602081905260409020546119be565b805b95945050505050565b336000908152600d6020908152604080832054815192830190915282825261117d918591859161106a565b600061117d611a018484610dfb565b610f9e84613617565b336000908152600d6020908152604080832054815192830190915282825261117d9185918591612078565b606060048054610f0790615e13565b60007f2c95f646d7033c5b1f0ff0b069bf367786555798c4a6d29fdd04e5009fe72543611a70816130ca565b611a78613627565b91505b5090565b6000806000611a8f8460066134e5565b9150915081611aa057600254611aa2565b805b949350505050565b6000611ab985610f9e84613617565b9050611aa28185858886613681565b7f9f5e37ff3a64b04b72b5b1811abfcf4517dd143202c8aa61348ea257fa96a082611af2816130ca565b601180547fffffffffffffff000000000000000000000000000000000000000000ffffffff166501000000000073ffffffffffffffffffffffffffffffffffffffff8816027fffffffffffffffffffffffffffffffffffffffffffffffffffffff00ffffffff161764010000000060ff871602179055611b7460128484615402565b507f9af8bb2214b95b73a62820901e712471a3a811d6bbbfcb6ca125ea22c2d2e34f3386868686604051611bac959493929190615fd7565b60405180910390a15050505050565b61115a3383836139cb565b6000611bda85611bd584613617565b613b17565b9050611aa28585858486613681565b33600081815260016020908152604080832073ffffffffffffffffffffffffffffffffffffffff8716845290915281205490919083811015611cad576040517f08c379a000000000000000000000000000000000000000000000000000000000815260206004820152602560248201527f45524332303a2064656372656173656420616c6c6f77616e63652062656c6f7760448201527f207a65726f0000000000000000000000000000000000000000000000000000006064820152608401610e9c565b611cba82868684036123a0565b506001949350505050565b600033610fb1818585612ac1565b60608167ffffffffffffffff811115611cee57611cee615599565b604051908082528060200260200182016040528015611d2157816020015b6060815260200190600190039081611d0c5790505b50905060005b82811015611dc157611d9130858584818110611d4557611d45615f6f565b9050602002810190611d57919061605e565b8080601f016020809104026020016040519081016040528093929190818152602001838380828437600092019190915250613b2e92505050565b828281518110611da357611da3615f6f565b60200260200101819052508080611db990615f9e565b915050611d27565b5092915050565b3360009081527f2179fd992b955c1b68e86dc6ec590a27361a591e85da35f4177199f327e5a7de602052604081205460ff16611e05576000610ed7565b610ed782613b53565b73ffffffffffffffffffffffffffffffffffffffff81166000908152600e6020526040812054611aa290859085908590611bc6565b73ffffffffffffffffffffffffffffffffffffffff81166000908152600e6020526040812054611aa290859085908590611aaa565b3360009081527ffa28fc64f8b9997656380b5a677ba911f3345daefd6a231fea79bac7b3c30c13602052604081205460ff16611eb557600061117d565b61117d8383613b78565b7f4050867f5f2e7b09df27b54fd9dd2dc48115dba018cf621a03355f7966666ae0611ee9816130ca565b601380547fffffffffffffffffffffff0000000000000000000000000000000000000000001661010073ffffffffffffffffffffffffffffffffffffffff8816027fffffffffffffffffffffffffffffffffffffffffffffffffffffffffffffff00161760ff8616179055611f6060148484615402565b507f42f243812a6dea299bc14e603debefbb1851dd9841410ea5487442341d6aab003386868686604051611bac959493929190615fd7565b600080611fa53386610dfb565b1161200c576040517f08c379a000000000000000000000000000000000000000000000000000000000815260206004820152601260248201527f4e4f545f524543454950545f484f4c44455200000000000000000000000000006044820152606401610e9c565b612058868661201b3389612554565b8787878080601f01602080910402602001604051908101604052809392919081815260200183838082843760009201919091525061264692505050565b5093949350505050565b6000610ed782670de0b6b3a764000060006125b5565b6000806120853386612554565b9050808411156120f1576040517f08c379a000000000000000000000000000000000000000000000000000000000815260206004820152600f60248201527f4d494e5f53484152455f524154494f00000000000000000000000000000000006044820152606401610e9c565b6120fc868286613b84565b91506111048286886110fe61262b565b73ffffffffffffffffffffffffffffffffffffffff81166000908152600e6020526040812054610ed79083906119f2565b6000828152600f6020526040902060010154612158816130ca565b61127283836131cb565b7fd646ae07eb0d0f77457502a65e7407930dff4cd4fd99abc6aac87a753f4c8a4261218c816130ca565b81806121a3575060115463ffffffff908116908616115b156121d957601180547fffffffffffffffffffffffffffffffffffffffffffffffffffffffff000000001663ffffffff87161790555b7f48184800c8d42238cf81f2b94d534a99087d5f0a99f6b1506c206f3bd653693233868686604051611bac94939291906160c3565b73ffffffffffffffffffffffffffffffffffffffff81166000908152600e6020526040812054610ed79083906117d5565b3360009081527f2179fd992b955c1b68e86dc6ec590a27361a591e85da35f4177199f327e5a7de602052604081205460ff16611a7b576000610ed7565b73ffffffffffffffffffffffffffffffffffffffff85163314806122a557506122a58533610d9a565b612331576040517f08c379a000000000000000000000000000000000000000000000000000000000815260206004820152602f60248201527f455243313135353a2063616c6c6572206973206e6f7420746f6b656e206f776e60448201527f6572206e6f7220617070726f76656400000000000000000000000000000000006064820152608401610e9c565b6112468585858585613286565b60007fffffffff0000000000000000000000000000000000000000000000000000000082167f7965db0b000000000000000000000000000000000000000000000000000000001480610ed75750610ed782613c05565b600061117d8383613ce8565b73ffffffffffffffffffffffffffffffffffffffff8316612442576040517f08c379a0000000000000000000000000000000000000000000000000000000008152602060048201526024808201527f45524332303a20617070726f76652066726f6d20746865207a65726f2061646460448201527f72657373000000000000000000000000000000000000000000000000000000006064820152608401610e9c565b73ffffffffffffffffffffffffffffffffffffffff82166124e5576040517f08c379a000000000000000000000000000000000000000000000000000000000815260206004820152602260248201527f45524332303a20617070726f766520746f20746865207a65726f20616464726560448201527f73730000000000000000000000000000000000000000000000000000000000006064820152608401610e9c565b73ffffffffffffffffffffffffffffffffffffffff83811660008181526001602090815260408083209487168084529482529182902085905590518481527f8c5be1e5ebec7d5bd14f71427d1e84f3dd0314c0f7b2291e5b200ac8c7c3b92591015b60405180910390a3505050565b73ffffffffffffffffffffffffffffffffffffffff821660009081527f2179fd992b955c1b68e86dc6ec590a27361a591e85da35f4177199f327e5a7de602052604081205460ff166125a757600061117d565b670de0b6b3a764000061117d565b600081831015612621576040517f08c379a000000000000000000000000000000000000000000000000000000000815260206004820152600f60248201527f4d494e5f53484152455f524154494f00000000000000000000000000000000006044820152606401610e9c565b611aa28484613d07565b6000601054600161263c9190615ecb565b6010819055919050565b6002600c5414156126b3576040517f08c379a000000000000000000000000000000000000000000000000000000000815260206004820152601f60248201527f5265656e7472616e637947756172643a207265656e7472616e742063616c6c006044820152606401610e9c565b6002600c558461271f576040517f08c379a000000000000000000000000000000000000000000000000000000000815260206004820152600860248201527f305f4153534554530000000000000000000000000000000000000000000000006044820152606401610e9c565b73ffffffffffffffffffffffffffffffffffffffff841661279c576040517f08c379a000000000000000000000000000000000000000000000000000000000815260206004820152600a60248201527f305f5245434549564552000000000000000000000000000000000000000000006044820152606401610e9c565b60008311612806576040517f08c379a000000000000000000000000000000000000000000000000000000000815260206004820152600860248201527f305f5348415245530000000000000000000000000000000000000000000000006044820152606401610e9c565b60008211612872576040517f08c379a0000000000000000000000000000000000000000000000000000000008152600401610e9c9060208082526004908201527f305f494400000000000000000000000000000000000000000000000000000000604082015260600190565b604080518681526020810185905273ffffffffffffffffffffffffffffffffffffffff86169133917fdcbc1c05240f31ff3ad067ef1ee35ce4997762752e3a095284754544f4c709d7910160405180910390a37f5ed31a4c06e645f3918576e173ec5a8115dbce3fcc93bfe3661a70cdc9334d7c3385878686866040516128fe9695949392919061613a565b60405180910390a161291285858585613d1c565b61291c8484613db4565b61292884838584613ee0565b612932828261110d565b50506001600c55505050565b600061294a3384610dfb565b118061298457503360009081527f1f034b915b8e2fab6363d31beff85eb0024f8cb52cc8e54438c70a655e622c60602052604090205460ff165b61115a576040517f08c379a000000000000000000000000000000000000000000000000000000000815260206004820152601660248201527f41535345545f494e464f524d4154494f4e5f41555448000000000000000000006044820152606401610e9c565b73ffffffffffffffffffffffffffffffffffffffff8381166000908152600160209081526040808320938616835292905220547fffffffffffffffffffffffffffffffffffffffffffffffffffffffffffffffff8114612abb5781811015612aae576040517f08c379a000000000000000000000000000000000000000000000000000000000815260206004820152601d60248201527f45524332303a20696e73756666696369656e7420616c6c6f77616e63650000006044820152606401610e9c565b612abb84848484036123a0565b50505050565b73ffffffffffffffffffffffffffffffffffffffff8316612b64576040517f08c379a000000000000000000000000000000000000000000000000000000000815260206004820152602560248201527f45524332303a207472616e736665722066726f6d20746865207a65726f20616460448201527f64726573730000000000000000000000000000000000000000000000000000006064820152608401610e9c565b73ffffffffffffffffffffffffffffffffffffffff8216612c07576040517f08c379a000000000000000000000000000000000000000000000000000000000815260206004820152602360248201527f45524332303a207472616e7366657220746f20746865207a65726f206164647260448201527f65737300000000000000000000000000000000000000000000000000000000006064820152608401610e9c565b612c12838383614062565b73ffffffffffffffffffffffffffffffffffffffff831660009081526020819052604090205481811015612cc8576040517f08c379a000000000000000000000000000000000000000000000000000000000815260206004820152602660248201527f45524332303a207472616e7366657220616d6f756e742065786365656473206260448201527f616c616e636500000000000000000000000000000000000000000000000000006064820152608401610e9c565b73ffffffffffffffffffffffffffffffffffffffff808516600090815260208190526040808220858503905591851681529081208054849290612d0c908490615ecb565b925050819055508273ffffffffffffffffffffffffffffffffffffffff168473ffffffffffffffffffffffffffffffffffffffff167fddf252ad1be2c89b69c2b068fc378daa952ba7f163c4a11628f55a4df523b3ef84604051612d7291815260200190565b60405180910390a3612abb565b8151835114612e10576040517f08c379a000000000000000000000000000000000000000000000000000000000815260206004820152602860248201527f455243313135353a2069647320616e6420616d6f756e7473206c656e6774682060448201527f6d69736d617463680000000000000000000000000000000000000000000000006064820152608401610e9c565b73ffffffffffffffffffffffffffffffffffffffff8416612eb3576040517f08c379a000000000000000000000000000000000000000000000000000000000815260206004820152602560248201527f455243313135353a207472616e7366657220746f20746865207a65726f20616460448201527f64726573730000000000000000000000000000000000000000000000000000006064820152608401610e9c565b33612ec28187878787876140ed565b60005b8451811015613035576000858281518110612ee257612ee2615f6f565b602002602001015190506000858381518110612f0057612f00615f6f565b602090810291909101810151600084815260098352604080822073ffffffffffffffffffffffffffffffffffffffff8e168352909352919091205490915081811015612fce576040517f08c379a000000000000000000000000000000000000000000000000000000000815260206004820152602a60248201527f455243313135353a20696e73756666696369656e742062616c616e636520666f60448201527f72207472616e73666572000000000000000000000000000000000000000000006064820152608401610e9c565b600083815260096020908152604080832073ffffffffffffffffffffffffffffffffffffffff8e8116855292528083208585039055908b1682528120805484929061301a908490615ecb565b925050819055505050508061302e90615f9e565b9050612ec5565b508473ffffffffffffffffffffffffffffffffffffffff168673ffffffffffffffffffffffffffffffffffffffff168273ffffffffffffffffffffffffffffffffffffffff167f4a39dc06d4c0dbc64b70af90fd698a233a518aa5d07e595d983b8c0526c8f7fb87876040516130ac929190616191565b60405180910390a46130c281878787878761416d565b505050505050565b6130d481336143f8565b50565b6000828152600f6020908152604080832073ffffffffffffffffffffffffffffffffffffffff8516845290915290205460ff1661115a576000828152600f6020908152604080832073ffffffffffffffffffffffffffffffffffffffff85168452909152902080547fffffffffffffffffffffffffffffffffffffffffffffffffffffffffffffff0016600117905561316d3390565b73ffffffffffffffffffffffffffffffffffffffff168173ffffffffffffffffffffffffffffffffffffffff16837f2f8788117e7eff1d82e926ec794901d17c78024a50270940304540a733656f0d60405160405180910390a45050565b6000828152600f6020908152604080832073ffffffffffffffffffffffffffffffffffffffff8516845290915290205460ff161561115a576000828152600f6020908152604080832073ffffffffffffffffffffffffffffffffffffffff8516808552925280832080547fffffffffffffffffffffffffffffffffffffffffffffffffffffffffffffff0016905551339285917ff6391f5c32d9c69d2a47ea670b442974b53935d1edc7fd64eb21e047a839171b9190a45050565b73ffffffffffffffffffffffffffffffffffffffff8416613329576040517f08c379a000000000000000000000000000000000000000000000000000000000815260206004820152602560248201527f455243313135353a207472616e7366657220746f20746865207a65726f20616460448201527f64726573730000000000000000000000000000000000000000000000000000006064820152608401610e9c565b336000613335856144ca565b90506000613342856144ca565b90506133528389898585896140ed565b600086815260096020908152604080832073ffffffffffffffffffffffffffffffffffffffff8c16845290915290205485811015613412576040517f08c379a000000000000000000000000000000000000000000000000000000000815260206004820152602a60248201527f455243313135353a20696e73756666696369656e742062616c616e636520666f60448201527f72207472616e73666572000000000000000000000000000000000000000000006064820152608401610e9c565b600087815260096020908152604080832073ffffffffffffffffffffffffffffffffffffffff8d8116855292528083208985039055908a1682528120805488929061345e908490615ecb565b9091555050604080518881526020810188905273ffffffffffffffffffffffffffffffffffffffff808b16928c821692918816917fc3d58168c5ae7397731d063d5bbf3d657854427343f4c083240f7aacaa2d0f62910160405180910390a46134cb848a8a8a8a8a614515565b505050505050505050565b600061117d83611bd584613617565b60008060008411613552576040517f08c379a000000000000000000000000000000000000000000000000000000000815260206004820152601660248201527f4552433230536e617073686f743a2069642069732030000000000000000000006044820152606401610e9c565b61355a6146c2565b8411156135c3576040517f08c379a000000000000000000000000000000000000000000000000000000000815260206004820152601d60248201527f4552433230536e617073686f743a206e6f6e6578697374656e742069640000006044820152606401610e9c565b60006135cf84866146cd565b84549091508114156135e8576000809250925050613610565b60018460010182815481106135ff576135ff615f6f565b906000526020600020015492509250505b9250929050565b6000670de0b6b3a7640000610ed7565b6000613637600880546001019055565b60006136416146c2565b90507f8030e83b04d87bef53480e26263266d6ca66863aa8506aca6f2559d18aa1cb678160405161367491815260200190565b60405180910390a1919050565b6002600c5414156136ee576040517f08c379a000000000000000000000000000000000000000000000000000000000815260206004820152601f60248201527f5265656e7472616e637947756172643a207265656e7472616e742063616c6c006044820152606401610e9c565b6002600c558461375a576040517f08c379a000000000000000000000000000000000000000000000000000000000815260206004820152600860248201527f305f4153534554530000000000000000000000000000000000000000000000006044820152606401610e9c565b73ffffffffffffffffffffffffffffffffffffffff84166137d7576040517f08c379a000000000000000000000000000000000000000000000000000000000815260206004820152600a60248201527f305f5245434549564552000000000000000000000000000000000000000000006044820152606401610e9c565b73ffffffffffffffffffffffffffffffffffffffff8316613854576040517f08c379a000000000000000000000000000000000000000000000000000000000815260206004820152600760248201527f305f4f574e4552000000000000000000000000000000000000000000000000006044820152606401610e9c565b600082116138be576040517f08c379a000000000000000000000000000000000000000000000000000000000815260206004820152600860248201527f305f5348415245530000000000000000000000000000000000000000000000006044820152606401610e9c565b604080518681526020810184905273ffffffffffffffffffffffffffffffffffffffff808616929087169133917ffbde797d201c681b91056529119e0b02407c7bb96a4a2c75c01fc9667232c8db910160405180910390a46040805133815273ffffffffffffffffffffffffffffffffffffffff8681166020830152851681830152606081018790526080810184905260a0810183905290517f01eda009fc2f79286ad5dee476bdf7b1f0a1d23ab4a929f51ca8399724f184079181900360c00190a173ffffffffffffffffffffffffffffffffffffffff831633146139a9576139a98333846129ea565b6139b38383614790565b6139be838284614989565b6129328585858585614bab565b8173ffffffffffffffffffffffffffffffffffffffff168373ffffffffffffffffffffffffffffffffffffffff161415613a87576040517f08c379a000000000000000000000000000000000000000000000000000000000815260206004820152602960248201527f455243313135353a2073657474696e6720617070726f76616c2073746174757360448201527f20666f722073656c6600000000000000000000000000000000000000000000006064820152608401610e9c565b73ffffffffffffffffffffffffffffffffffffffff8381166000818152600a602090815260408083209487168084529482529182902080547fffffffffffffffffffffffffffffffffffffffffffffffffffffffffffffff001686151590811790915591519182527f17307eab39ab6107e8899845ad3d59bd9653f200f220920489ca2b5937696c319101612547565b6000613b238383613d07565b61117d906001615ecb565b606061117d83836040518060600160405280602781526020016164dd60279139614c59565b6000610ed782613b633333612554565b336000908152600d6020526040902054613b84565b600061117d8383612394565b600081831015613bf0576040517f08c379a000000000000000000000000000000000000000000000000000000000815260206004820152600f60248201527f4d494e5f53484152455f524154494f00000000000000000000000000000000006044820152606401610e9c565b613bfa8484613ce8565b611aa2906001615ecb565b60007fffffffff0000000000000000000000000000000000000000000000000000000082167fd9b67a26000000000000000000000000000000000000000000000000000000001480613c9857507fffffffff0000000000000000000000000000000000000000000000000000000082167f0e89341c00000000000000000000000000000000000000000000000000000000145b80610ed757507f01ffc9a7000000000000000000000000000000000000000000000000000000007fffffffff00000000000000000000000000000000000000000000000000000000831614610ed7565b600081613cfd670de0b6b3a7640000856161b6565b61117d91906161f3565b6000670de0b6b3a7640000613cfd83856161b6565b3360009081527f2179fd992b955c1b68e86dc6ec590a27361a591e85da35f4177199f327e5a7de602052604090205460ff16612abb576040517f08c379a000000000000000000000000000000000000000000000000000000000815260206004820152600d60248201527f4e4f545f4445504f5349544f52000000000000000000000000000000000000006044820152606401610e9c565b73ffffffffffffffffffffffffffffffffffffffff8216613e31576040517f08c379a000000000000000000000000000000000000000000000000000000000815260206004820152601f60248201527f45524332303a206d696e7420746f20746865207a65726f2061646472657373006044820152606401610e9c565b613e3d60008383614062565b8060026000828254613e4f9190615ecb565b909155505073ffffffffffffffffffffffffffffffffffffffff821660009081526020819052604081208054839290613e89908490615ecb565b909155505060405181815273ffffffffffffffffffffffffffffffffffffffff8316906000907fddf252ad1be2c89b69c2b068fc378daa952ba7f163c4a11628f55a4df523b3ef9060200160405180910390a35050565b73ffffffffffffffffffffffffffffffffffffffff8416613f83576040517f08c379a000000000000000000000000000000000000000000000000000000000815260206004820152602160248201527f455243313135353a206d696e7420746f20746865207a65726f2061646472657360448201527f73000000000000000000000000000000000000000000000000000000000000006064820152608401610e9c565b336000613f8f856144ca565b90506000613f9c856144ca565b9050613fad836000898585896140ed565b600086815260096020908152604080832073ffffffffffffffffffffffffffffffffffffffff8b16845290915281208054879290613fec908490615ecb565b9091555050604080518781526020810187905273ffffffffffffffffffffffffffffffffffffffff808a1692600092918716917fc3d58168c5ae7397731d063d5bbf3d657854427343f4c083240f7aacaa2d0f62910160405180910390a461405983600089898989614515565b50505050505050565b60115460128054604080516020808402820181019092528281526112729465010000000000810473ffffffffffffffffffffffffffffffffffffffff169464010000000090910460ff169391929091908301828280156140e157602002820191906000526020600020905b8154815260200190600101908083116140cd575b50505050508686614d81565b60135460148054604080516020808402820181019092528281526130c29473ffffffffffffffffffffffffffffffffffffffff6101008204169460ff90911693919290919083018282801561416157602002820191906000526020600020905b81548152602001906001019080831161414d575b50505050508888614d81565b73ffffffffffffffffffffffffffffffffffffffff84163b156130c2576040517fbc197c8100000000000000000000000000000000000000000000000000000000815273ffffffffffffffffffffffffffffffffffffffff85169063bc197c81906141e4908990899088908890889060040161622e565b6020604051808303816000875af192505050801561423d575060408051601f3d9081017fffffffffffffffffffffffffffffffffffffffffffffffffffffffffffffffe016820190925261423a9181019061628d565b60015b614327576142496162aa565b806308c379a0141561429d575061425e6162c6565b80614269575061429f565b806040517f08c379a0000000000000000000000000000000000000000000000000000000008152600401610e9c919061556d565b505b6040517f08c379a000000000000000000000000000000000000000000000000000000000815260206004820152603460248201527f455243313135353a207472616e7366657220746f206e6f6e204552433131353560448201527f526563656976657220696d706c656d656e7465720000000000000000000000006064820152608401610e9c565b7fffffffff0000000000000000000000000000000000000000000000000000000081167fbc197c810000000000000000000000000000000000000000000000000000000014614059576040517f08c379a000000000000000000000000000000000000000000000000000000000815260206004820152602860248201527f455243313135353a204552433131353552656365697665722072656a6563746560448201527f6420746f6b656e730000000000000000000000000000000000000000000000006064820152608401610e9c565b6000828152600f6020908152604080832073ffffffffffffffffffffffffffffffffffffffff8516845290915290205460ff1661115a576144508173ffffffffffffffffffffffffffffffffffffffff166014615151565b61445b836020615151565b60405160200161446c92919061636e565b604080517fffffffffffffffffffffffffffffffffffffffffffffffffffffffffffffffe0818403018152908290527f08c379a0000000000000000000000000000000000000000000000000000000008252610e9c9160040161556d565b6040805160018082528183019092526060916000919060208083019080368337019050509050828160008151811061450457614504615f6f565b602090810291909101015292915050565b73ffffffffffffffffffffffffffffffffffffffff84163b156130c2576040517ff23a6e6100000000000000000000000000000000000000000000000000000000815273ffffffffffffffffffffffffffffffffffffffff85169063f23a6e619061458c90899089908890889088906004016163ef565b6020604051808303816000875af19250505080156145e5575060408051601f3d9081017fffffffffffffffffffffffffffffffffffffffffffffffffffffffffffffffe01682019092526145e29181019061628d565b60015b6145f1576142496162aa565b7fffffffff0000000000000000000000000000000000000000000000000000000081167ff23a6e610000000000000000000000000000000000000000000000000000000014614059576040517f08c379a000000000000000000000000000000000000000000000000000000000815260206004820152602860248201527f455243313135353a204552433131353552656365697665722072656a6563746560448201527f6420746f6b656e730000000000000000000000000000000000000000000000006064820152608401610e9c565b6000610ee860085490565b81546000906146de57506000610ed7565b82546000905b8082101561473a5760006146f88383615394565b90508486828154811061470d5761470d615f6f565b9060005260206000200154111561472657809150614734565b614731816001615ecb565b92505b506146e4565b60008211801561476f5750838561475260018561643f565b8154811061476257614762615f6f565b9060005260206000200154145b156147885761477f60018361643f565b92505050610ed7565b509050610ed7565b73ffffffffffffffffffffffffffffffffffffffff8216614833576040517f08c379a000000000000000000000000000000000000000000000000000000000815260206004820152602160248201527f45524332303a206275726e2066726f6d20746865207a65726f2061646472657360448201527f73000000000000000000000000000000000000000000000000000000000000006064820152608401610e9c565b61483f82600083614062565b73ffffffffffffffffffffffffffffffffffffffff8216600090815260208190526040902054818110156148f5576040517f08c379a000000000000000000000000000000000000000000000000000000000815260206004820152602260248201527f45524332303a206275726e20616d6f756e7420657863656564732062616c616e60448201527f63650000000000000000000000000000000000000000000000000000000000006064820152608401610e9c565b73ffffffffffffffffffffffffffffffffffffffff8316600090815260208190526040812083830390556002805484929061493190849061643f565b909155505060405182815260009073ffffffffffffffffffffffffffffffffffffffff8516907fddf252ad1be2c89b69c2b068fc378daa952ba7f163c4a11628f55a4df523b3ef9060200160405180910390a3505050565b73ffffffffffffffffffffffffffffffffffffffff8316614a2c576040517f08c379a000000000000000000000000000000000000000000000000000000000815260206004820152602360248201527f455243313135353a206275726e2066726f6d20746865207a65726f206164647260448201527f65737300000000000000000000000000000000000000000000000000000000006064820152608401610e9c565b336000614a38846144ca565b90506000614a45846144ca565b9050614a65838760008585604051806020016040528060008152506140ed565b600085815260096020908152604080832073ffffffffffffffffffffffffffffffffffffffff8a16845290915290205484811015614b24576040517f08c379a0000000000000000000000000000000000000000000000000000000008152602060048201526024808201527f455243313135353a206275726e20616d6f756e7420657863656564732062616c60448201527f616e6365000000000000000000000000000000000000000000000000000000006064820152608401610e9c565b600086815260096020908152604080832073ffffffffffffffffffffffffffffffffffffffff8b81168086529184528285208a8703905582518b81529384018a90529092908816917fc3d58168c5ae7397731d063d5bbf3d657854427343f4c083240f7aacaa2d0f62910160405180910390a4604080516020810190915260009052614059565b73ffffffffffffffffffffffffffffffffffffffff831660009081527ffa28fc64f8b9997656380b5a677ba911f3345daefd6a231fea79bac7b3c30c13602052604090205460ff16611246576040517f08c379a000000000000000000000000000000000000000000000000000000000815260206004820152600e60248201527f4e4f545f574954484452415745520000000000000000000000000000000000006044820152606401610e9c565b606073ffffffffffffffffffffffffffffffffffffffff84163b614cff576040517f08c379a000000000000000000000000000000000000000000000000000000000815260206004820152602660248201527f416464726573733a2064656c65676174652063616c6c20746f206e6f6e2d636f60448201527f6e747261637400000000000000000000000000000000000000000000000000006064820152608401610e9c565b6000808573ffffffffffffffffffffffffffffffffffffffff1685604051614d279190616456565b600060405180830381855af49150503d8060008114614d62576040519150601f19603f3d011682016040523d82523d6000602084013e614d67565b606091505b5091509150614d778282866153af565b9695505050505050565b73ffffffffffffffffffffffffffffffffffffffff821660009081527f90758555a73a42ca824148b36f4afe450958a9271fc1a42c9c3439089dc9cca7602052604090205460ff1680614e18575073ffffffffffffffffffffffffffffffffffffffff811660009081527f90758555a73a42ca824148b36f4afe450958a9271fc1a42c9c3439089dc9cca7602052604090205460ff165b15614e2257611246565b73ffffffffffffffffffffffffffffffffffffffff82161580614e59575073ffffffffffffffffffffffffffffffffffffffff8116155b15614e6357611246565b73ffffffffffffffffffffffffffffffffffffffff811660009081527fb6a93d26d12a5febe0a436d1042f18a22122fde8e811efc7fb031fd3fac47686602052604090205460ff1615614eb557611246565b60115463ffffffff16421115614f27576040517f08c379a000000000000000000000000000000000000000000000000000000000815260206004820152601560248201527f43455254494649434154494f4e5f4558504952454400000000000000000000006044820152606401610e9c565b73ffffffffffffffffffffffffffffffffffffffff851615801590614f4c5750600084115b15611246576040517fcaa0eb3b00000000000000000000000000000000000000000000000000000000815273ffffffffffffffffffffffffffffffffffffffff86169063caa0eb3b90614fa790859088908890600401616472565b602060405180830381865afa158015614fc4573d6000803e3d6000fd5b505050506040513d601f19601f82011682018060405250810190614fe89190615f56565b421015615051576040517f08c379a000000000000000000000000000000000000000000000000000000000815260206004820152600b60248201527f53454e4445525f544945520000000000000000000000000000000000000000006044820152606401610e9c565b6040517fcaa0eb3b00000000000000000000000000000000000000000000000000000000815273ffffffffffffffffffffffffffffffffffffffff86169063caa0eb3b906150a790849088908890600401616472565b602060405180830381865afa1580156150c4573d6000803e3d6000fd5b505050506040513d601f19601f820116820180604052508101906150e89190615f56565b421015611246576040517f08c379a000000000000000000000000000000000000000000000000000000000815260206004820152600e60248201527f524543495049454e545f544945520000000000000000000000000000000000006044820152606401610e9c565b606060006151608360026161b6565b61516b906002615ecb565b67ffffffffffffffff81111561518357615183615599565b6040519080825280601f01601f1916602001820160405280156151ad576020820181803683370190505b5090507f3000000000000000000000000000000000000000000000000000000000000000816000815181106151e4576151e4615f6f565b60200101907effffffffffffffffffffffffffffffffffffffffffffffffffffffffffffff1916908160001a9053507f78000000000000000000000000000000000000000000000000000000000000008160018151811061524757615247615f6f565b60200101907effffffffffffffffffffffffffffffffffffffffffffffffffffffffffffff1916908160001a90535060006152838460026161b6565b61528e906001615ecb565b90505b600181111561532b577f303132333435363738396162636465660000000000000000000000000000000085600f16601081106152cf576152cf615f6f565b1a60f81b8282815181106152e5576152e5615f6f565b60200101907effffffffffffffffffffffffffffffffffffffffffffffffffffffffffffff1916908160001a90535060049490941c93615324816164a7565b9050615291565b50831561117d576040517f08c379a000000000000000000000000000000000000000000000000000000000815260206004820181905260248201527f537472696e67733a20686578206c656e67746820696e73756666696369656e746044820152606401610e9c565b60006153a360028484186161f3565b61117d90848416615ecb565b606083156153be57508161117d565b8251156153ce5782518084602001fd5b816040517f08c379a0000000000000000000000000000000000000000000000000000000008152600401610e9c919061556d565b82805482825590600052602060002090810192821561543d579160200282015b8281111561543d578235825591602001919060010190615422565b50611a7b9291505b80821115611a7b5760008155600101615445565b803573ffffffffffffffffffffffffffffffffffffffff8116811461547d57600080fd5b919050565b6000806040838503121561549557600080fd5b61549e83615459565b946020939093013593505050565b7fffffffff00000000000000000000000000000000000000000000000000000000811681146130d457600080fd5b6000602082840312156154ec57600080fd5b813561117d816154ac565b60005b838110156155125781810151838201526020016154fa565b83811115612abb5750506000910152565b6000815180845261553b8160208601602086016154f7565b601f017fffffffffffffffffffffffffffffffffffffffffffffffffffffffffffffffe0169290920160200192915050565b60208152600061117d6020830184615523565b60006020828403121561559257600080fd5b5035919050565b7f4e487b7100000000000000000000000000000000000000000000000000000000600052604160045260246000fd5b7fffffffffffffffffffffffffffffffffffffffffffffffffffffffffffffffe0601f830116810181811067ffffffffffffffff8211171561560c5761560c615599565b6040525050565b600082601f83011261562457600080fd5b813567ffffffffffffffff81111561563e5761563e615599565b60405161567360207fffffffffffffffffffffffffffffffffffffffffffffffffffffffffffffffe0601f85011601826155c8565b81815284602083860101111561568857600080fd5b816020850160208301376000918101602001919091529392505050565b600080600080608085870312156156bb57600080fd5b843593506156cb60208601615459565b925060408501359150606085013567ffffffffffffffff8111156156ee57600080fd5b6156fa87828801615613565b91505092959194509250565b6000806040838503121561571957600080fd5b82359150602083013567ffffffffffffffff81111561573757600080fd5b61574385828601615613565b9150509250929050565b60008060006060848603121561576257600080fd5b61576b84615459565b925061577960208501615459565b9150604084013590509250925092565b600067ffffffffffffffff8211156157a3576157a3615599565b5060051b60200190565b600082601f8301126157be57600080fd5b813560206157cb82615789565b6040516157d882826155c8565b83815260059390931b85018201928281019150868411156157f857600080fd5b8286015b8481101561581357803583529183019183016157fc565b509695505050505050565b600080600080600060a0868803121561583657600080fd5b61583f86615459565b945061584d60208701615459565b9350604086013567ffffffffffffffff8082111561586a57600080fd5b61587689838a016157ad565b9450606088013591508082111561588c57600080fd5b61589889838a016157ad565b935060808801359150808211156158ae57600080fd5b506158bb88828901615613565b9150509295509295909350565b600080604083850312156158db57600080fd5b823591506158eb60208401615459565b90509250929050565b60006020828403121561590657600080fd5b61117d82615459565b6000806040838503121561592257600080fd5b50508035926020909101359150565b6000806040838503121561594457600080fd5b823567ffffffffffffffff8082111561595c57600080fd5b818501915085601f83011261597057600080fd5b8135602061597d82615789565b60405161598a82826155c8565b83815260059390931b85018201928281019150898411156159aa57600080fd5b948201945b838610156159cf576159c086615459565b825294820194908201906159af565b965050860135925050808211156159e557600080fd5b50615743858286016157ad565b600081518084526020808501945080840160005b83811015615a2257815187529582019590820190600101615a06565b509495945050505050565b60208152600061117d60208301846159f2565b60008060008060808587031215615a5657600080fd5b84359350615a6660208601615459565b9250615a7460408601615459565b9396929550929360600135925050565b60008083601f840112615a9657600080fd5b50813567ffffffffffffffff811115615aae57600080fd5b6020830191508360208260051b850101111561361057600080fd5b60008060008060608587031215615adf57600080fd5b615ae885615459565b9350602085013560ff81168114615afe57600080fd5b9250604085013567ffffffffffffffff811115615b1a57600080fd5b615b2687828801615a84565b95989497509550505050565b8035801515811461547d57600080fd5b60008060408385031215615b5557600080fd5b615b5e83615459565b91506158eb60208401615b32565b60008060208385031215615b7f57600080fd5b823567ffffffffffffffff811115615b9657600080fd5b615ba285828601615a84565b90969095509350505050565b6000602080830181845280855180835260408601915060408160051b870101925083870160005b82811015615c21577fffffffffffffffffffffffffffffffffffffffffffffffffffffffffffffffc0888603018452615c0f858351615523565b94509285019290850190600101615bd5565b5092979650505050505050565b600080600060608486031215615c4357600080fd5b83359250615c5360208501615459565b9150615c6160408501615459565b90509250925092565b60008083601f840112615c7c57600080fd5b50813567ffffffffffffffff811115615c9457600080fd5b60208301915083602082850101111561361057600080fd5b600080600080600060808688031215615cc457600080fd5b85359450615cd460208701615459565b935060408601359250606086013567ffffffffffffffff811115615cf757600080fd5b615d0388828901615c6a565b969995985093965092949392505050565b60008060008060608587031215615d2a57600080fd5b843563ffffffff81168114615d3e57600080fd5b9350602085013567ffffffffffffffff811115615d5a57600080fd5b615d6687828801615c6a565b9094509250615d79905060408601615b32565b905092959194509250565b60008060408385031215615d9757600080fd5b615da083615459565b91506158eb60208401615459565b600080600080600060a08688031215615dc657600080fd5b615dcf86615459565b9450615ddd60208701615459565b93506040860135925060608601359150608086013567ffffffffffffffff811115615e0757600080fd5b6158bb88828901615613565b600181811c90821680615e2757607f821691505b60208210811415615e61577f4e487b7100000000000000000000000000000000000000000000000000000000600052602260045260246000fd5b50919050565b73ffffffffffffffffffffffffffffffffffffffff841681528260208201526060604082015260006119be6060830184615523565b7f4e487b7100000000000000000000000000000000000000000000000000000000600052601160045260246000fd5b60008219821115615ede57615ede615e9c565b500190565b60006060820173ffffffffffffffffffffffffffffffffffffffff86168352602060ff861681850152606060408501528185548084526080860191508660005282600020935060005b81811015615f4857845483526001948501949284019201615f2c565b509098975050505050505050565b600060208284031215615f6857600080fd5b5051919050565b7f4e487b7100000000000000000000000000000000000000000000000000000000600052603260045260246000fd5b60007fffffffffffffffffffffffffffffffffffffffffffffffffffffffffffffffff821415615fd057615fd0615e9c565b5060010190565b600073ffffffffffffffffffffffffffffffffffffffff808816835280871660208401525060ff85166040830152608060608301528260808301527f07ffffffffffffffffffffffffffffffffffffffffffffffffffffffffffffff83111561603f57600080fd5b8260051b808560a08501376000920160a0019182525095945050505050565b60008083357fffffffffffffffffffffffffffffffffffffffffffffffffffffffffffffffe184360301811261609357600080fd5b83018035915067ffffffffffffffff8211156160ae57600080fd5b60200191503681900382131561361057600080fd5b73ffffffffffffffffffffffffffffffffffffffff8516815263ffffffff8416602082015260606040820152816060820152818360808301376000818301608090810191909152601f9092017fffffffffffffffffffffffffffffffffffffffffffffffffffffffffffffffe01601019392505050565b600073ffffffffffffffffffffffffffffffffffffffff808916835280881660208401525085604083015284606083015283608083015260c060a083015261618560c0830184615523565b98975050505050505050565b6040815260006161a460408301856159f2565b82810360208401526119be81856159f2565b6000817fffffffffffffffffffffffffffffffffffffffffffffffffffffffffffffffff04831182151516156161ee576161ee615e9c565b500290565b600082616229577f4e487b7100000000000000000000000000000000000000000000000000000000600052601260045260246000fd5b500490565b600073ffffffffffffffffffffffffffffffffffffffff808816835280871660208401525060a0604083015261626760a08301866159f2565b828103606084015261627981866159f2565b905082810360808401526161858185615523565b60006020828403121561629f57600080fd5b815161117d816154ac565b600060033d11156162c35760046000803e5060005160e01c5b90565b600060443d10156162d45790565b6040517ffffffffffffffffffffffffffffffffffffffffffffffffffffffffffffffffc803d016004833e81513d67ffffffffffffffff816024840111818411171561632257505050505090565b828501915081518181111561633a5750505050505090565b843d87010160208285010111156163545750505050505090565b616363602082860101876155c8565b509095945050505050565b7f416363657373436f6e74726f6c3a206163636f756e74200000000000000000008152600083516163a68160178501602088016154f7565b7f206973206d697373696e6720726f6c652000000000000000000000000000000060179184019182015283516163e38160288401602088016154f7565b01602801949350505050565b600073ffffffffffffffffffffffffffffffffffffffff808816835280871660208401525084604083015283606083015260a0608083015261643460a0830184615523565b979650505050505050565b60008282101561645157616451615e9c565b500390565b600082516164688184602087016154f7565b9190910192915050565b73ffffffffffffffffffffffffffffffffffffffff841681528260208201526060604082015260006119be60608301846159f2565b6000816164b6576164b6615e9c565b507fffffffffffffffffffffffffffffffffffffffffffffffffffffffffffffffff019056fe416464726573733a206c6f772d6c6576656c2064656c65676174652063616c6c206661696c6564a2646970667358221220283b6b16a387b28bb920863bf42d792912745277be614cfd4e22abf28ed6b94a64736f6c634300080a00334cbb985fecd7e86ede589f695f46f07d40afe7cb60f6049028c0b9a6bfaf649ec23bede8eabca44a15d0193051ac5429f3d014a7e297a4e78f67d06657d14269d461edcf12d14f5a18f27560fb18cfcb7df6fedb1d46c3664b9634623e9a172d4bbeb6fd3e5222e55f2f8b0c35bc228e0a06a25d0da772fdb02c3b92fa004f88f2491dcc230f29376998d72c6c3ea4cc17d3791c66e46b32ea439c19610d51dbc1a04980ce16d8574a4108b9f0a95358068379059fe211b7eb60a9f805237e60c091f023e1c6780346fd5f1017395079a3ea0e07d94a4f9e7273a43e3fa2a7e8da44ae5b31a7809c0f15e7306bdde44fffb60fdee235af40c70b73a6610de41ea26469706673582212203d69b79782088a1135158454e47c91e800be0dad2aa094a2ae6699bc239c6ee264736f6c634300080a0033",
  "linkReferences": {},
  "deployedLinkReferences": {}
}